{
	"contracts/ABCall.sol": {
		"A": {
			"abi": [
				{
					"inputs": [
						{
							"internalType": "address",
							"name": "_contractAddress",
							"type": "address"
						}
					],
					"name": "inc_call",
					"outputs": [
						{
							"internalType": "bool",
							"name": "success",
							"type": "bool"
						},
						{
							"internalType": "bytes",
							"name": "returnData",
							"type": "bytes"
						}
					],
					"stateMutability": "nonpayable",
					"type": "function"
				},
				{
					"inputs": [
						{
							"internalType": "address",
							"name": "_contractAddress",
							"type": "address"
						},
						{
							"internalType": "int256",
							"name": "_value",
							"type": "int256"
						}
					],
					"name": "inc_call_value",
					"outputs": [
						{
							"internalType": "bool",
							"name": "success",
							"type": "bool"
						},
						{
							"internalType": "bytes",
							"name": "returnData",
							"type": "bytes"
						}
					],
					"stateMutability": "nonpayable",
					"type": "function"
				},
				{
					"inputs": [
						{
							"internalType": "address",
							"name": "_contractAddress",
							"type": "address"
						}
					],
					"name": "inc_callcode",
					"outputs": [
						{
							"internalType": "bool",
							"name": "success",
							"type": "bool"
						},
						{
							"internalType": "bytes",
							"name": "returnData",
							"type": "bytes"
						}
					],
					"stateMutability": "nonpayable",
					"type": "function"
				},
				{
					"inputs": [],
					"name": "x",
					"outputs": [
						{
							"internalType": "int256",
							"name": "",
							"type": "int256"
						}
					],
					"stateMutability": "view",
					"type": "function"
				}
			],
			"devdoc": {
				"kind": "dev",
				"methods": {},
				"version": 1
			},
			"evm": {
				"assembly": "    /* \"contracts/ABCall.sol\":70:2018  contract A {... */\n  mstore(0x40, 0x80)\n  callvalue\n  dup1\n  iszero\n  tag_1\n  jumpi\n  0x00\n  dup1\n  revert\ntag_1:\n  pop\n  dataSize(sub_0)\n  dup1\n  dataOffset(sub_0)\n  0x00\n  codecopy\n  0x00\n  return\nstop\n\nsub_0: assembly {\n        /* \"contracts/ABCall.sol\":70:2018  contract A {... */\n      mstore(0x40, 0x80)\n      callvalue\n      dup1\n      iszero\n      tag_1\n      jumpi\n      0x00\n      dup1\n      revert\n    tag_1:\n      pop\n      jumpi(tag_2, lt(calldatasize, 0x04))\n      shr(0xe0, calldataload(0x00))\n      dup1\n      0x0c55699c\n      eq\n      tag_3\n      jumpi\n      dup1\n      0x7811c6c1\n      eq\n      tag_4\n      jumpi\n      dup1\n      0xa9421619\n      eq\n      tag_5\n      jumpi\n      dup1\n      0xdba7378e\n      eq\n      tag_6\n      jumpi\n    tag_2:\n      0x00\n      dup1\n      revert\n        /* \"contracts/ABCall.sol\":87:102  int256 public x */\n    tag_3:\n      tag_7\n      tag_8\n      jump\t// in\n    tag_7:\n      mload(0x40)\n      tag_9\n      swap2\n      swap1\n      tag_10\n      jump\t// in\n    tag_9:\n      mload(0x40)\n      dup1\n      swap2\n      sub\n      swap1\n      return\n        /* \"contracts/ABCall.sol\":1024:1461  function inc_callcode(address _contractAddress) public returns (bool success, bytes memory returnData){... */\n    tag_4:\n      tag_11\n      0x04\n      dup1\n      calldatasize\n      sub\n      dup2\n      add\n      swap1\n      tag_12\n      swap2\n      swap1\n      tag_13\n      jump\t// in\n    tag_12:\n      tag_14\n      jump\t// in\n    tag_11:\n      mload(0x40)\n      tag_15\n      swap3\n      swap2\n      swap1\n      tag_16\n      jump\t// in\n    tag_15:\n      mload(0x40)\n      dup1\n      swap2\n      sub\n      swap1\n      return\n        /* \"contracts/ABCall.sol\":109:1018  function inc_call(address _contractAddress) public returns (bool success, bytes memory returnData) {... */\n    tag_5:\n      tag_17\n      0x04\n      dup1\n      calldatasize\n      sub\n      dup2\n      add\n      swap1\n      tag_18\n      swap2\n      swap1\n      tag_13\n      jump\t// in\n    tag_18:\n      tag_19\n      jump\t// in\n    tag_17:\n      mload(0x40)\n      tag_20\n      swap3\n      swap2\n      swap1\n      tag_16\n      jump\t// in\n    tag_20:\n      mload(0x40)\n      dup1\n      swap2\n      sub\n      swap1\n      return\n        /* \"contracts/ABCall.sol\":1467:2016  function inc_call_value(address _contractAddress, int256 _value)... */\n    tag_6:\n      tag_21\n      0x04\n      dup1\n      calldatasize\n      sub\n      dup2\n      add\n      swap1\n      tag_22\n      swap2\n      swap1\n      tag_23\n      jump\t// in\n    tag_22:\n      tag_24\n      jump\t// in\n    tag_21:\n      mload(0x40)\n      tag_25\n      swap3\n      swap2\n      swap1\n      tag_16\n      jump\t// in\n    tag_25:\n      mload(0x40)\n      dup1\n      swap2\n      sub\n      swap1\n      return\n        /* \"contracts/ABCall.sol\":87:102  int256 public x */\n    tag_8:\n      sload(0x00)\n      dup2\n      jump\t// out\n        /* \"contracts/ABCall.sol\":1024:1461  function inc_callcode(address _contractAddress) public returns (bool success, bytes memory returnData){... */\n    tag_14:\n        /* \"contracts/ABCall.sol\":1088:1100  bool success */\n      0x00\n        /* \"contracts/ABCall.sol\":1102:1125  bytes memory returnData */\n      0x60\n        /* \"contracts/ABCall.sol\":1263:1283  bytes memory payload */\n      0x00\n        /* \"contracts/ABCall.sol\":1286:1318  abi.encodeWithSignature(\"inc()\") */\n      add(0x24, mload(0x40))\n      mload(0x40)\n      0x20\n      dup2\n      dup4\n      sub\n      sub\n      dup2\n      mstore\n      swap1\n      0x40\n      mstore\n      and(not(0xffffffffffffffffffffffffffffffffffffffffffffffffffffffff), 0x371303c000000000000000000000000000000000000000000000000000000000)\n      0x20\n      dup3\n      add\n      dup1\n      mload\n      0xffffffffffffffffffffffffffffffffffffffffffffffffffffffff\n      dup4\n      dup2\n      dup4\n      and\n      or\n      dup4\n      mstore\n      pop\n      pop\n      pop\n      pop\n        /* \"contracts/ABCall.sol\":1263:1318  bytes memory payload = abi.encodeWithSignature(\"inc()\") */\n      swap1\n      pop\n        /* \"contracts/ABCall.sol\":1416:1432  _contractAddress */\n      dup4\n        /* \"contracts/ABCall.sol\":1416:1445  _contractAddress.delegatecall */\n      0xffffffffffffffffffffffffffffffffffffffff\n      and\n        /* \"contracts/ABCall.sol\":1446:1453  payload */\n      dup2\n        /* \"contracts/ABCall.sol\":1416:1454  _contractAddress.delegatecall(payload) */\n      mload(0x40)\n      tag_27\n      swap2\n      swap1\n      tag_28\n      jump\t// in\n    tag_27:\n      0x00\n      mload(0x40)\n      dup1\n      dup4\n      sub\n      dup2\n      dup6\n      gas\n      delegatecall\n      swap2\n      pop\n      pop\n      returndatasize\n      dup1\n      0x00\n      dup2\n      eq\n      tag_31\n      jumpi\n      mload(0x40)\n      swap2\n      pop\n      and(add(returndatasize, 0x3f), not(0x1f))\n      dup3\n      add\n      0x40\n      mstore\n      returndatasize\n      dup3\n      mstore\n      returndatasize\n      0x00\n      0x20\n      dup5\n      add\n      returndatacopy\n      jump(tag_30)\n    tag_31:\n      0x60\n      swap2\n      pop\n    tag_30:\n      pop\n        /* \"contracts/ABCall.sol\":1409:1454  return _contractAddress.delegatecall(payload) */\n      swap3\n      pop\n      swap3\n      pop\n      pop\n        /* \"contracts/ABCall.sol\":1024:1461  function inc_callcode(address _contractAddress) public returns (bool success, bytes memory returnData){... */\n      swap2\n      pop\n      swap2\n      jump\t// out\n        /* \"contracts/ABCall.sol\":109:1018  function inc_call(address _contractAddress) public returns (bool success, bytes memory returnData) {... */\n    tag_19:\n        /* \"contracts/ABCall.sol\":169:181  bool success */\n      0x00\n        /* \"contracts/ABCall.sol\":183:206  bytes memory returnData */\n      0x60\n        /* \"contracts/ABCall.sol\":241:253  bytes4 inc_4 */\n      0x00\n        /* \"contracts/ABCall.sol\":263:281  keccak256(\"inc()\") */\n      0x371303c051bff726100ad13871cababf50c20dd920fca137e519f98f089a74b4\n        /* \"contracts/ABCall.sol\":241:282  bytes4 inc_4 = bytes4(keccak256(\"inc()\")) */\n      swap1\n      pop\n        /* \"contracts/ABCall.sol\":324:340  bytes memory inc */\n      0x00\n        /* \"contracts/ABCall.sol\":353:354  4 */\n      0x04\n        /* \"contracts/ABCall.sol\":343:355  new bytes(4) */\n      0xffffffffffffffff\n      dup2\n      gt\n      iszero\n      tag_33\n      jumpi\n      tag_34\n      tag_35\n      jump\t// in\n    tag_34:\n    tag_33:\n      mload(0x40)\n      swap1\n      dup1\n      dup3\n      mstore\n      dup1\n      0x1f\n      add\n      not(0x1f)\n      and\n      0x20\n      add\n      dup3\n      add\n      0x40\n      mstore\n      dup1\n      iszero\n      tag_36\n      jumpi\n      dup2\n      0x20\n      add\n      0x01\n      dup3\n      mul\n      dup1\n      calldatasize\n      dup4\n      calldatacopy\n      dup1\n      dup3\n      add\n      swap2\n      pop\n      pop\n      swap1\n      pop\n    tag_36:\n      pop\n        /* \"contracts/ABCall.sol\":324:355  bytes memory inc = new bytes(4) */\n      swap1\n      pop\n        /* \"contracts/ABCall.sol\":370:379  uint256 i */\n      0x00\n        /* \"contracts/ABCall.sol\":365:439  for (uint256 i = 0; i < 4; i++) {... */\n    tag_37:\n        /* \"contracts/ABCall.sol\":389:390  4 */\n      0x04\n        /* \"contracts/ABCall.sol\":385:386  i */\n      dup2\n        /* \"contracts/ABCall.sol\":385:390  i < 4 */\n      lt\n        /* \"contracts/ABCall.sol\":365:439  for (uint256 i = 0; i < 4; i++) {... */\n      iszero\n      tag_38\n      jumpi\n        /* \"contracts/ABCall.sol\":420:425  inc_4 */\n      dup3\n        /* \"contracts/ABCall.sol\":426:427  i */\n      dup2\n        /* \"contracts/ABCall.sol\":420:428  inc_4[i] */\n      0x04\n      dup2\n      lt\n      tag_40\n      jumpi\n      tag_41\n      tag_42\n      jump\t// in\n    tag_41:\n    tag_40:\n      byte\n      0xf8\n      shl\n        /* \"contracts/ABCall.sol\":411:414  inc */\n      dup3\n        /* \"contracts/ABCall.sol\":415:416  i */\n      dup3\n        /* \"contracts/ABCall.sol\":411:417  inc[i] */\n      dup2\n      mload\n      dup2\n      lt\n      tag_43\n      jumpi\n      tag_44\n      tag_42\n      jump\t// in\n    tag_44:\n    tag_43:\n      0x20\n      add\n      add\n        /* \"contracts/ABCall.sol\":411:428  inc[i] = inc_4[i] */\n      swap1\n      not(0xffffffffffffffffffffffffffffffffffffffffffffffffffffffffffffff)\n      and\n      swap1\n      dup2\n      0x00\n      byte\n      swap1\n      mstore8\n      pop\n        /* \"contracts/ABCall.sol\":392:395  i++ */\n      dup1\n      dup1\n      tag_45\n      swap1\n      tag_46\n      jump\t// in\n    tag_45:\n      swap2\n      pop\n      pop\n        /* \"contracts/ABCall.sol\":365:439  for (uint256 i = 0; i < 4; i++) {... */\n      jump(tag_37)\n    tag_38:\n      pop\n        /* \"contracts/ABCall.sol\":573:587  bytes memory f */\n      0x00\n        /* \"contracts/ABCall.sol\":613:618  inc_4 */\n      dup3\n        /* \"contracts/ABCall.sol\":590:619  abi.encodeWithSelector(inc_4) */\n      add(0x24, mload(0x40))\n      mload(0x40)\n      0x20\n      dup2\n      dup4\n      sub\n      sub\n      dup2\n      mstore\n      swap1\n      0x40\n      mstore\n      swap1\n      not(0xffffffffffffffffffffffffffffffffffffffffffffffffffffffff)\n      and\n      0x20\n      dup3\n      add\n      dup1\n      mload\n      0xffffffffffffffffffffffffffffffffffffffffffffffffffffffff\n      dup4\n      dup2\n      dup4\n      and\n      or\n      dup4\n      mstore\n      pop\n      pop\n      pop\n      pop\n        /* \"contracts/ABCall.sol\":573:619  bytes memory f = abi.encodeWithSelector(inc_4) */\n      swap1\n      pop\n        /* \"contracts/ABCall.sol\":765:781  _contractAddress */\n      dup6\n        /* \"contracts/ABCall.sol\":765:786  _contractAddress.call */\n      0xffffffffffffffffffffffffffffffffffffffff\n      and\n        /* \"contracts/ABCall.sol\":787:788  f */\n      dup2\n        /* \"contracts/ABCall.sol\":765:789  _contractAddress.call(f) */\n      mload(0x40)\n      tag_47\n      swap2\n      swap1\n      tag_28\n      jump\t// in\n    tag_47:\n      0x00\n      mload(0x40)\n      dup1\n      dup4\n      sub\n      dup2\n      0x00\n      dup7\n      gas\n      call\n      swap2\n      pop\n      pop\n      returndatasize\n      dup1\n      0x00\n      dup2\n      eq\n      tag_50\n      jumpi\n      mload(0x40)\n      swap2\n      pop\n      and(add(returndatasize, 0x3f), not(0x1f))\n      dup3\n      add\n      0x40\n      mstore\n      returndatasize\n      dup3\n      mstore\n      returndatasize\n      0x00\n      0x20\n      dup5\n      add\n      returndatacopy\n      jump(tag_49)\n    tag_50:\n      0x60\n      swap2\n      pop\n    tag_49:\n      pop\n        /* \"contracts/ABCall.sol\":758:789  return _contractAddress.call(f) */\n      swap5\n      pop\n      swap5\n      pop\n      pop\n      pop\n      pop\n        /* \"contracts/ABCall.sol\":109:1018  function inc_call(address _contractAddress) public returns (bool success, bytes memory returnData) {... */\n      swap2\n      pop\n      swap2\n      jump\t// out\n        /* \"contracts/ABCall.sol\":1467:2016  function inc_call_value(address _contractAddress, int256 _value)... */\n    tag_24:\n        /* \"contracts/ABCall.sol\":1564:1576  bool success */\n      0x00\n        /* \"contracts/ABCall.sol\":1578:1601  bytes memory returnData */\n      0x60\n        /* \"contracts/ABCall.sol\":1834:1854  bytes memory payload */\n      0x00\n        /* \"contracts/ABCall.sol\":1897:1903  _value */\n      dup4\n        /* \"contracts/ABCall.sol\":1857:1904  abi.encodeWithSignature(\"inc2(int256)\", _value) */\n      add(0x24, mload(0x40))\n      tag_52\n      swap2\n      swap1\n      tag_10\n      jump\t// in\n    tag_52:\n      mload(0x40)\n      0x20\n      dup2\n      dup4\n      sub\n      sub\n      dup2\n      mstore\n      swap1\n      0x40\n      mstore\n      and(not(0xffffffffffffffffffffffffffffffffffffffffffffffffffffffff), 0xd0c1172c00000000000000000000000000000000000000000000000000000000)\n      0x20\n      dup3\n      add\n      dup1\n      mload\n      0xffffffffffffffffffffffffffffffffffffffffffffffffffffffff\n      dup4\n      dup2\n      dup4\n      and\n      or\n      dup4\n      mstore\n      pop\n      pop\n      pop\n      pop\n        /* \"contracts/ABCall.sol\":1834:1904  bytes memory payload = abi.encodeWithSignature(\"inc2(int256)\", _value) */\n      swap1\n      pop\n        /* \"contracts/ABCall.sol\":1979:1995  _contractAddress */\n      dup5\n        /* \"contracts/ABCall.sol\":1979:2000  _contractAddress.call */\n      0xffffffffffffffffffffffffffffffffffffffff\n      and\n        /* \"contracts/ABCall.sol\":2001:2008  payload */\n      dup2\n        /* \"contracts/ABCall.sol\":1979:2009  _contractAddress.call(payload) */\n      mload(0x40)\n      tag_53\n      swap2\n      swap1\n      tag_28\n      jump\t// in\n    tag_53:\n      0x00\n      mload(0x40)\n      dup1\n      dup4\n      sub\n      dup2\n      0x00\n      dup7\n      gas\n      call\n      swap2\n      pop\n      pop\n      returndatasize\n      dup1\n      0x00\n      dup2\n      eq\n      tag_56\n      jumpi\n      mload(0x40)\n      swap2\n      pop\n      and(add(returndatasize, 0x3f), not(0x1f))\n      dup3\n      add\n      0x40\n      mstore\n      returndatasize\n      dup3\n      mstore\n      returndatasize\n      0x00\n      0x20\n      dup5\n      add\n      returndatacopy\n      jump(tag_55)\n    tag_56:\n      0x60\n      swap2\n      pop\n    tag_55:\n      pop\n        /* \"contracts/ABCall.sol\":1972:2009  return _contractAddress.call(payload) */\n      swap3\n      pop\n      swap3\n      pop\n      pop\n        /* \"contracts/ABCall.sol\":1467:2016  function inc_call_value(address _contractAddress, int256 _value)... */\n      swap3\n      pop\n      swap3\n      swap1\n      pop\n      jump\t// out\n        /* \"#utility.yul\":7:146   */\n    tag_58:\n        /* \"#utility.yul\":53:58   */\n      0x00\n        /* \"#utility.yul\":91:97   */\n      dup2\n        /* \"#utility.yul\":78:98   */\n      calldataload\n        /* \"#utility.yul\":69:98   */\n      swap1\n      pop\n        /* \"#utility.yul\":107:140   */\n      tag_60\n        /* \"#utility.yul\":134:139   */\n      dup2\n        /* \"#utility.yul\":107:140   */\n      tag_61\n      jump\t// in\n    tag_60:\n        /* \"#utility.yul\":7:146   */\n      swap3\n      swap2\n      pop\n      pop\n      jump\t// out\n        /* \"#utility.yul\":152:289   */\n    tag_62:\n        /* \"#utility.yul\":197:202   */\n      0x00\n        /* \"#utility.yul\":235:241   */\n      dup2\n        /* \"#utility.yul\":222:242   */\n      calldataload\n        /* \"#utility.yul\":213:242   */\n      swap1\n      pop\n        /* \"#utility.yul\":251:283   */\n      tag_64\n        /* \"#utility.yul\":277:282   */\n      dup2\n        /* \"#utility.yul\":251:283   */\n      tag_65\n      jump\t// in\n    tag_64:\n        /* \"#utility.yul\":152:289   */\n      swap3\n      swap2\n      pop\n      pop\n      jump\t// out\n        /* \"#utility.yul\":295:624   */\n    tag_13:\n        /* \"#utility.yul\":354:360   */\n      0x00\n        /* \"#utility.yul\":403:405   */\n      0x20\n        /* \"#utility.yul\":391:400   */\n      dup3\n        /* \"#utility.yul\":382:389   */\n      dup5\n        /* \"#utility.yul\":378:401   */\n      sub\n        /* \"#utility.yul\":374:406   */\n      slt\n        /* \"#utility.yul\":371:490   */\n      iszero\n      tag_67\n      jumpi\n        /* \"#utility.yul\":409:488   */\n      tag_68\n      tag_69\n      jump\t// in\n    tag_68:\n        /* \"#utility.yul\":371:490   */\n    tag_67:\n        /* \"#utility.yul\":529:530   */\n      0x00\n        /* \"#utility.yul\":554:607   */\n      tag_70\n        /* \"#utility.yul\":599:606   */\n      dup5\n        /* \"#utility.yul\":590:596   */\n      dup3\n        /* \"#utility.yul\":579:588   */\n      dup6\n        /* \"#utility.yul\":575:597   */\n      add\n        /* \"#utility.yul\":554:607   */\n      tag_58\n      jump\t// in\n    tag_70:\n        /* \"#utility.yul\":544:607   */\n      swap2\n      pop\n        /* \"#utility.yul\":500:617   */\n      pop\n        /* \"#utility.yul\":295:624   */\n      swap3\n      swap2\n      pop\n      pop\n      jump\t// out\n        /* \"#utility.yul\":630:1102   */\n    tag_23:\n        /* \"#utility.yul\":697:703   */\n      0x00\n        /* \"#utility.yul\":705:711   */\n      dup1\n        /* \"#utility.yul\":754:756   */\n      0x40\n        /* \"#utility.yul\":742:751   */\n      dup4\n        /* \"#utility.yul\":733:740   */\n      dup6\n        /* \"#utility.yul\":729:752   */\n      sub\n        /* \"#utility.yul\":725:757   */\n      slt\n        /* \"#utility.yul\":722:841   */\n      iszero\n      tag_72\n      jumpi\n        /* \"#utility.yul\":760:839   */\n      tag_73\n      tag_69\n      jump\t// in\n    tag_73:\n        /* \"#utility.yul\":722:841   */\n    tag_72:\n        /* \"#utility.yul\":880:881   */\n      0x00\n        /* \"#utility.yul\":905:958   */\n      tag_74\n        /* \"#utility.yul\":950:957   */\n      dup6\n        /* \"#utility.yul\":941:947   */\n      dup3\n        /* \"#utility.yul\":930:939   */\n      dup7\n        /* \"#utility.yul\":926:948   */\n      add\n        /* \"#utility.yul\":905:958   */\n      tag_58\n      jump\t// in\n    tag_74:\n        /* \"#utility.yul\":895:958   */\n      swap3\n      pop\n        /* \"#utility.yul\":851:968   */\n      pop\n        /* \"#utility.yul\":1007:1009   */\n      0x20\n        /* \"#utility.yul\":1033:1085   */\n      tag_75\n        /* \"#utility.yul\":1077:1084   */\n      dup6\n        /* \"#utility.yul\":1068:1074   */\n      dup3\n        /* \"#utility.yul\":1057:1066   */\n      dup7\n        /* \"#utility.yul\":1053:1075   */\n      add\n        /* \"#utility.yul\":1033:1085   */\n      tag_62\n      jump\t// in\n    tag_75:\n        /* \"#utility.yul\":1023:1085   */\n      swap2\n      pop\n        /* \"#utility.yul\":978:1095   */\n      pop\n        /* \"#utility.yul\":630:1102   */\n      swap3\n      pop\n      swap3\n      swap1\n      pop\n      jump\t// out\n        /* \"#utility.yul\":1108:1217   */\n    tag_76:\n        /* \"#utility.yul\":1189:1210   */\n      tag_78\n        /* \"#utility.yul\":1204:1209   */\n      dup2\n        /* \"#utility.yul\":1189:1210   */\n      tag_79\n      jump\t// in\n    tag_78:\n        /* \"#utility.yul\":1184:1187   */\n      dup3\n        /* \"#utility.yul\":1177:1211   */\n      mstore\n        /* \"#utility.yul\":1108:1217   */\n      pop\n      pop\n      jump\t// out\n        /* \"#utility.yul\":1223:1583   */\n    tag_80:\n        /* \"#utility.yul\":1309:1312   */\n      0x00\n        /* \"#utility.yul\":1337:1375   */\n      tag_82\n        /* \"#utility.yul\":1369:1374   */\n      dup3\n        /* \"#utility.yul\":1337:1375   */\n      tag_83\n      jump\t// in\n    tag_82:\n        /* \"#utility.yul\":1391:1461   */\n      tag_84\n        /* \"#utility.yul\":1454:1460   */\n      dup2\n        /* \"#utility.yul\":1449:1452   */\n      dup6\n        /* \"#utility.yul\":1391:1461   */\n      tag_85\n      jump\t// in\n    tag_84:\n        /* \"#utility.yul\":1384:1461   */\n      swap4\n      pop\n        /* \"#utility.yul\":1470:1522   */\n      tag_86\n        /* \"#utility.yul\":1515:1521   */\n      dup2\n        /* \"#utility.yul\":1510:1513   */\n      dup6\n        /* \"#utility.yul\":1503:1507   */\n      0x20\n        /* \"#utility.yul\":1496:1501   */\n      dup7\n        /* \"#utility.yul\":1492:1508   */\n      add\n        /* \"#utility.yul\":1470:1522   */\n      tag_87\n      jump\t// in\n    tag_86:\n        /* \"#utility.yul\":1547:1576   */\n      tag_88\n        /* \"#utility.yul\":1569:1575   */\n      dup2\n        /* \"#utility.yul\":1547:1576   */\n      tag_89\n      jump\t// in\n    tag_88:\n        /* \"#utility.yul\":1542:1545   */\n      dup5\n        /* \"#utility.yul\":1538:1577   */\n      add\n        /* \"#utility.yul\":1531:1577   */\n      swap2\n      pop\n        /* \"#utility.yul\":1313:1583   */\n      pop\n        /* \"#utility.yul\":1223:1583   */\n      swap3\n      swap2\n      pop\n      pop\n      jump\t// out\n        /* \"#utility.yul\":1589:1962   */\n    tag_90:\n        /* \"#utility.yul\":1693:1696   */\n      0x00\n        /* \"#utility.yul\":1721:1759   */\n      tag_92\n        /* \"#utility.yul\":1753:1758   */\n      dup3\n        /* \"#utility.yul\":1721:1759   */\n      tag_83\n      jump\t// in\n    tag_92:\n        /* \"#utility.yul\":1775:1863   */\n      tag_93\n        /* \"#utility.yul\":1856:1862   */\n      dup2\n        /* \"#utility.yul\":1851:1854   */\n      dup6\n        /* \"#utility.yul\":1775:1863   */\n      tag_94\n      jump\t// in\n    tag_93:\n        /* \"#utility.yul\":1768:1863   */\n      swap4\n      pop\n        /* \"#utility.yul\":1872:1924   */\n      tag_95\n        /* \"#utility.yul\":1917:1923   */\n      dup2\n        /* \"#utility.yul\":1912:1915   */\n      dup6\n        /* \"#utility.yul\":1905:1909   */\n      0x20\n        /* \"#utility.yul\":1898:1903   */\n      dup7\n        /* \"#utility.yul\":1894:1910   */\n      add\n        /* \"#utility.yul\":1872:1924   */\n      tag_87\n      jump\t// in\n    tag_95:\n        /* \"#utility.yul\":1949:1955   */\n      dup1\n        /* \"#utility.yul\":1944:1947   */\n      dup5\n        /* \"#utility.yul\":1940:1956   */\n      add\n        /* \"#utility.yul\":1933:1956   */\n      swap2\n      pop\n        /* \"#utility.yul\":1697:1962   */\n      pop\n        /* \"#utility.yul\":1589:1962   */\n      swap3\n      swap2\n      pop\n      pop\n      jump\t// out\n        /* \"#utility.yul\":1968:2083   */\n    tag_96:\n        /* \"#utility.yul\":2053:2076   */\n      tag_98\n        /* \"#utility.yul\":2070:2075   */\n      dup2\n        /* \"#utility.yul\":2053:2076   */\n      tag_99\n      jump\t// in\n    tag_98:\n        /* \"#utility.yul\":2048:2051   */\n      dup3\n        /* \"#utility.yul\":2041:2077   */\n      mstore\n        /* \"#utility.yul\":1968:2083   */\n      pop\n      pop\n      jump\t// out\n        /* \"#utility.yul\":2089:2360   */\n    tag_28:\n        /* \"#utility.yul\":2219:2222   */\n      0x00\n        /* \"#utility.yul\":2241:2334   */\n      tag_101\n        /* \"#utility.yul\":2330:2333   */\n      dup3\n        /* \"#utility.yul\":2321:2327   */\n      dup5\n        /* \"#utility.yul\":2241:2334   */\n      tag_90\n      jump\t// in\n    tag_101:\n        /* \"#utility.yul\":2234:2334   */\n      swap2\n      pop\n        /* \"#utility.yul\":2351:2354   */\n      dup2\n        /* \"#utility.yul\":2344:2354   */\n      swap1\n      pop\n        /* \"#utility.yul\":2089:2360   */\n      swap3\n      swap2\n      pop\n      pop\n      jump\t// out\n        /* \"#utility.yul\":2366:2773   */\n    tag_16:\n        /* \"#utility.yul\":2499:2503   */\n      0x00\n        /* \"#utility.yul\":2537:2539   */\n      0x40\n        /* \"#utility.yul\":2526:2535   */\n      dup3\n        /* \"#utility.yul\":2522:2540   */\n      add\n        /* \"#utility.yul\":2514:2540   */\n      swap1\n      pop\n        /* \"#utility.yul\":2550:2615   */\n      tag_103\n        /* \"#utility.yul\":2612:2613   */\n      0x00\n        /* \"#utility.yul\":2601:2610   */\n      dup4\n        /* \"#utility.yul\":2597:2614   */\n      add\n        /* \"#utility.yul\":2588:2594   */\n      dup6\n        /* \"#utility.yul\":2550:2615   */\n      tag_76\n      jump\t// in\n    tag_103:\n        /* \"#utility.yul\":2662:2671   */\n      dup2\n        /* \"#utility.yul\":2656:2660   */\n      dup2\n        /* \"#utility.yul\":2652:2672   */\n      sub\n        /* \"#utility.yul\":2647:2649   */\n      0x20\n        /* \"#utility.yul\":2636:2645   */\n      dup4\n        /* \"#utility.yul\":2632:2650   */\n      add\n        /* \"#utility.yul\":2625:2673   */\n      mstore\n        /* \"#utility.yul\":2690:2766   */\n      tag_104\n        /* \"#utility.yul\":2761:2765   */\n      dup2\n        /* \"#utility.yul\":2752:2758   */\n      dup5\n        /* \"#utility.yul\":2690:2766   */\n      tag_80\n      jump\t// in\n    tag_104:\n        /* \"#utility.yul\":2682:2766   */\n      swap1\n      pop\n        /* \"#utility.yul\":2366:2773   */\n      swap4\n      swap3\n      pop\n      pop\n      pop\n      jump\t// out\n        /* \"#utility.yul\":2779:2997   */\n    tag_10:\n        /* \"#utility.yul\":2870:2874   */\n      0x00\n        /* \"#utility.yul\":2908:2910   */\n      0x20\n        /* \"#utility.yul\":2897:2906   */\n      dup3\n        /* \"#utility.yul\":2893:2911   */\n      add\n        /* \"#utility.yul\":2885:2911   */\n      swap1\n      pop\n        /* \"#utility.yul\":2921:2990   */\n      tag_106\n        /* \"#utility.yul\":2987:2988   */\n      0x00\n        /* \"#utility.yul\":2976:2985   */\n      dup4\n        /* \"#utility.yul\":2972:2989   */\n      add\n        /* \"#utility.yul\":2963:2969   */\n      dup5\n        /* \"#utility.yul\":2921:2990   */\n      tag_96\n      jump\t// in\n    tag_106:\n        /* \"#utility.yul\":2779:2997   */\n      swap3\n      swap2\n      pop\n      pop\n      jump\t// out\n        /* \"#utility.yul\":3084:3182   */\n    tag_83:\n        /* \"#utility.yul\":3135:3141   */\n      0x00\n        /* \"#utility.yul\":3169:3174   */\n      dup2\n        /* \"#utility.yul\":3163:3175   */\n      mload\n        /* \"#utility.yul\":3153:3175   */\n      swap1\n      pop\n        /* \"#utility.yul\":3084:3182   */\n      swap2\n      swap1\n      pop\n      jump\t// out\n        /* \"#utility.yul\":3188:3356   */\n    tag_85:\n        /* \"#utility.yul\":3271:3282   */\n      0x00\n        /* \"#utility.yul\":3305:3311   */\n      dup3\n        /* \"#utility.yul\":3300:3303   */\n      dup3\n        /* \"#utility.yul\":3293:3312   */\n      mstore\n        /* \"#utility.yul\":3345:3349   */\n      0x20\n        /* \"#utility.yul\":3340:3343   */\n      dup3\n        /* \"#utility.yul\":3336:3350   */\n      add\n        /* \"#utility.yul\":3321:3350   */\n      swap1\n      pop\n        /* \"#utility.yul\":3188:3356   */\n      swap3\n      swap2\n      pop\n      pop\n      jump\t// out\n        /* \"#utility.yul\":3362:3509   */\n    tag_94:\n        /* \"#utility.yul\":3463:3474   */\n      0x00\n        /* \"#utility.yul\":3500:3503   */\n      dup2\n        /* \"#utility.yul\":3485:3503   */\n      swap1\n      pop\n        /* \"#utility.yul\":3362:3509   */\n      swap3\n      swap2\n      pop\n      pop\n      jump\t// out\n        /* \"#utility.yul\":3515:3611   */\n    tag_112:\n        /* \"#utility.yul\":3552:3559   */\n      0x00\n        /* \"#utility.yul\":3581:3605   */\n      tag_114\n        /* \"#utility.yul\":3599:3604   */\n      dup3\n        /* \"#utility.yul\":3581:3605   */\n      tag_115\n      jump\t// in\n    tag_114:\n        /* \"#utility.yul\":3570:3605   */\n      swap1\n      pop\n        /* \"#utility.yul\":3515:3611   */\n      swap2\n      swap1\n      pop\n      jump\t// out\n        /* \"#utility.yul\":3617:3707   */\n    tag_79:\n        /* \"#utility.yul\":3651:3658   */\n      0x00\n        /* \"#utility.yul\":3694:3699   */\n      dup2\n        /* \"#utility.yul\":3687:3700   */\n      iszero\n        /* \"#utility.yul\":3680:3701   */\n      iszero\n        /* \"#utility.yul\":3669:3701   */\n      swap1\n      pop\n        /* \"#utility.yul\":3617:3707   */\n      swap2\n      swap1\n      pop\n      jump\t// out\n        /* \"#utility.yul\":3713:3789   */\n    tag_99:\n        /* \"#utility.yul\":3749:3756   */\n      0x00\n        /* \"#utility.yul\":3778:3783   */\n      dup2\n        /* \"#utility.yul\":3767:3783   */\n      swap1\n      pop\n        /* \"#utility.yul\":3713:3789   */\n      swap2\n      swap1\n      pop\n      jump\t// out\n        /* \"#utility.yul\":3795:3921   */\n    tag_115:\n        /* \"#utility.yul\":3832:3839   */\n      0x00\n        /* \"#utility.yul\":3872:3914   */\n      0xffffffffffffffffffffffffffffffffffffffff\n        /* \"#utility.yul\":3865:3870   */\n      dup3\n        /* \"#utility.yul\":3861:3915   */\n      and\n        /* \"#utility.yul\":3850:3915   */\n      swap1\n      pop\n        /* \"#utility.yul\":3795:3921   */\n      swap2\n      swap1\n      pop\n      jump\t// out\n        /* \"#utility.yul\":3927:4004   */\n    tag_119:\n        /* \"#utility.yul\":3964:3971   */\n      0x00\n        /* \"#utility.yul\":3993:3998   */\n      dup2\n        /* \"#utility.yul\":3982:3998   */\n      swap1\n      pop\n        /* \"#utility.yul\":3927:4004   */\n      swap2\n      swap1\n      pop\n      jump\t// out\n        /* \"#utility.yul\":4010:4317   */\n    tag_87:\n        /* \"#utility.yul\":4078:4079   */\n      0x00\n        /* \"#utility.yul\":4088:4201   */\n    tag_122:\n        /* \"#utility.yul\":4102:4108   */\n      dup4\n        /* \"#utility.yul\":4099:4100   */\n      dup2\n        /* \"#utility.yul\":4096:4109   */\n      lt\n        /* \"#utility.yul\":4088:4201   */\n      iszero\n      tag_124\n      jumpi\n        /* \"#utility.yul\":4187:4188   */\n      dup1\n        /* \"#utility.yul\":4182:4185   */\n      dup3\n        /* \"#utility.yul\":4178:4189   */\n      add\n        /* \"#utility.yul\":4172:4190   */\n      mload\n        /* \"#utility.yul\":4168:4169   */\n      dup2\n        /* \"#utility.yul\":4163:4166   */\n      dup5\n        /* \"#utility.yul\":4159:4170   */\n      add\n        /* \"#utility.yul\":4152:4191   */\n      mstore\n        /* \"#utility.yul\":4124:4126   */\n      0x20\n        /* \"#utility.yul\":4121:4122   */\n      dup2\n        /* \"#utility.yul\":4117:4127   */\n      add\n        /* \"#utility.yul\":4112:4127   */\n      swap1\n      pop\n        /* \"#utility.yul\":4088:4201   */\n      jump(tag_122)\n    tag_124:\n        /* \"#utility.yul\":4219:4225   */\n      dup4\n        /* \"#utility.yul\":4216:4217   */\n      dup2\n        /* \"#utility.yul\":4213:4226   */\n      gt\n        /* \"#utility.yul\":4210:4311   */\n      iszero\n      tag_125\n      jumpi\n        /* \"#utility.yul\":4299:4300   */\n      0x00\n        /* \"#utility.yul\":4290:4296   */\n      dup5\n        /* \"#utility.yul\":4285:4288   */\n      dup5\n        /* \"#utility.yul\":4281:4297   */\n      add\n        /* \"#utility.yul\":4274:4301   */\n      mstore\n        /* \"#utility.yul\":4210:4311   */\n    tag_125:\n        /* \"#utility.yul\":4059:4317   */\n      pop\n        /* \"#utility.yul\":4010:4317   */\n      pop\n      pop\n      pop\n      jump\t// out\n        /* \"#utility.yul\":4323:4556   */\n    tag_46:\n        /* \"#utility.yul\":4362:4365   */\n      0x00\n        /* \"#utility.yul\":4385:4409   */\n      tag_127\n        /* \"#utility.yul\":4403:4408   */\n      dup3\n        /* \"#utility.yul\":4385:4409   */\n      tag_119\n      jump\t// in\n    tag_127:\n        /* \"#utility.yul\":4376:4409   */\n      swap2\n      pop\n        /* \"#utility.yul\":4431:4497   */\n      0xffffffffffffffffffffffffffffffffffffffffffffffffffffffffffffffff\n        /* \"#utility.yul\":4424:4429   */\n      dup3\n        /* \"#utility.yul\":4421:4498   */\n      eq\n        /* \"#utility.yul\":4418:4521   */\n      iszero\n      tag_128\n      jumpi\n        /* \"#utility.yul\":4501:4519   */\n      tag_129\n      tag_130\n      jump\t// in\n    tag_129:\n        /* \"#utility.yul\":4418:4521   */\n    tag_128:\n        /* \"#utility.yul\":4548:4549   */\n      0x01\n        /* \"#utility.yul\":4541:4546   */\n      dup3\n        /* \"#utility.yul\":4537:4550   */\n      add\n        /* \"#utility.yul\":4530:4550   */\n      swap1\n      pop\n        /* \"#utility.yul\":4323:4556   */\n      swap2\n      swap1\n      pop\n      jump\t// out\n        /* \"#utility.yul\":4562:4742   */\n    tag_130:\n        /* \"#utility.yul\":4610:4687   */\n      0x4e487b7100000000000000000000000000000000000000000000000000000000\n        /* \"#utility.yul\":4607:4608   */\n      0x00\n        /* \"#utility.yul\":4600:4688   */\n      mstore\n        /* \"#utility.yul\":4707:4711   */\n      0x11\n        /* \"#utility.yul\":4704:4705   */\n      0x04\n        /* \"#utility.yul\":4697:4712   */\n      mstore\n        /* \"#utility.yul\":4731:4735   */\n      0x24\n        /* \"#utility.yul\":4728:4729   */\n      0x00\n        /* \"#utility.yul\":4721:4736   */\n      revert\n        /* \"#utility.yul\":4748:4928   */\n    tag_42:\n        /* \"#utility.yul\":4796:4873   */\n      0x4e487b7100000000000000000000000000000000000000000000000000000000\n        /* \"#utility.yul\":4793:4794   */\n      0x00\n        /* \"#utility.yul\":4786:4874   */\n      mstore\n        /* \"#utility.yul\":4893:4897   */\n      0x32\n        /* \"#utility.yul\":4890:4891   */\n      0x04\n        /* \"#utility.yul\":4883:4898   */\n      mstore\n        /* \"#utility.yul\":4917:4921   */\n      0x24\n        /* \"#utility.yul\":4914:4915   */\n      0x00\n        /* \"#utility.yul\":4907:4922   */\n      revert\n        /* \"#utility.yul\":4934:5114   */\n    tag_35:\n        /* \"#utility.yul\":4982:5059   */\n      0x4e487b7100000000000000000000000000000000000000000000000000000000\n        /* \"#utility.yul\":4979:4980   */\n      0x00\n        /* \"#utility.yul\":4972:5060   */\n      mstore\n        /* \"#utility.yul\":5079:5083   */\n      0x41\n        /* \"#utility.yul\":5076:5077   */\n      0x04\n        /* \"#utility.yul\":5069:5084   */\n      mstore\n        /* \"#utility.yul\":5103:5107   */\n      0x24\n        /* \"#utility.yul\":5100:5101   */\n      0x00\n        /* \"#utility.yul\":5093:5108   */\n      revert\n        /* \"#utility.yul\":5243:5360   */\n    tag_69:\n        /* \"#utility.yul\":5352:5353   */\n      0x00\n        /* \"#utility.yul\":5349:5350   */\n      dup1\n        /* \"#utility.yul\":5342:5354   */\n      revert\n        /* \"#utility.yul\":5366:5468   */\n    tag_89:\n        /* \"#utility.yul\":5407:5413   */\n      0x00\n        /* \"#utility.yul\":5458:5460   */\n      0x1f\n        /* \"#utility.yul\":5454:5461   */\n      not\n        /* \"#utility.yul\":5449:5451   */\n      0x1f\n        /* \"#utility.yul\":5442:5447   */\n      dup4\n        /* \"#utility.yul\":5438:5452   */\n      add\n        /* \"#utility.yul\":5434:5462   */\n      and\n        /* \"#utility.yul\":5424:5462   */\n      swap1\n      pop\n        /* \"#utility.yul\":5366:5468   */\n      swap2\n      swap1\n      pop\n      jump\t// out\n        /* \"#utility.yul\":5474:5596   */\n    tag_61:\n        /* \"#utility.yul\":5547:5571   */\n      tag_139\n        /* \"#utility.yul\":5565:5570   */\n      dup2\n        /* \"#utility.yul\":5547:5571   */\n      tag_112\n      jump\t// in\n    tag_139:\n        /* \"#utility.yul\":5540:5545   */\n      dup2\n        /* \"#utility.yul\":5537:5572   */\n      eq\n        /* \"#utility.yul\":5527:5590   */\n      tag_140\n      jumpi\n        /* \"#utility.yul\":5586:5587   */\n      0x00\n        /* \"#utility.yul\":5583:5584   */\n      dup1\n        /* \"#utility.yul\":5576:5588   */\n      revert\n        /* \"#utility.yul\":5527:5590   */\n    tag_140:\n        /* \"#utility.yul\":5474:5596   */\n      pop\n      jump\t// out\n        /* \"#utility.yul\":5602:5722   */\n    tag_65:\n        /* \"#utility.yul\":5674:5697   */\n      tag_142\n        /* \"#utility.yul\":5691:5696   */\n      dup2\n        /* \"#utility.yul\":5674:5697   */\n      tag_99\n      jump\t// in\n    tag_142:\n        /* \"#utility.yul\":5667:5672   */\n      dup2\n        /* \"#utility.yul\":5664:5698   */\n      eq\n        /* \"#utility.yul\":5654:5716   */\n      tag_143\n      jumpi\n        /* \"#utility.yul\":5712:5713   */\n      0x00\n        /* \"#utility.yul\":5709:5710   */\n      dup1\n        /* \"#utility.yul\":5702:5714   */\n      revert\n        /* \"#utility.yul\":5654:5716   */\n    tag_143:\n        /* \"#utility.yul\":5602:5722   */\n      pop\n      jump\t// out\n\n    auxdata: 0xa26469706673582212202fb70e68498c96669df1b817c56bf5f745bff89124d07916aef27a03e9b1ca7464736f6c63430008070033\n}\n",
				"bytecode": {
					"linkReferences": {},
					"object": "608060405234801561001057600080fd5b5061085a806100206000396000f3fe608060405234801561001057600080fd5b506004361061004c5760003560e01c80630c55699c146100515780637811c6c11461006f578063a9421619146100a0578063dba7378e146100d1575b600080fd5b610059610102565b6040516100669190610643565b60405180910390f35b61008960048036038101906100849190610507565b610108565b604051610097929190610613565b60405180910390f35b6100ba60048036038101906100b59190610507565b610203565b6040516100c8929190610613565b60405180910390f35b6100eb60048036038101906100e69190610534565b6103d3565b6040516100f9929190610613565b60405180910390f35b60005481565b6000606060006040516024016040516020818303038152906040527f371303c0000000000000000000000000000000000000000000000000000000007bffffffffffffffffffffffffffffffffffffffffffffffffffffffff19166020820180517bffffffffffffffffffffffffffffffffffffffffffffffffffffffff838183161783525050505090508373ffffffffffffffffffffffffffffffffffffffff16816040516101b891906105fc565b600060405180830381855af49150503d80600081146101f3576040519150601f19603f3d011682016040523d82523d6000602084013e6101f8565b606091505b509250925050915091565b6000606060007f371303c051bff726100ad13871cababf50c20dd920fca137e519f98f089a74b490506000600467ffffffffffffffff811115610249576102486107b1565b5b6040519080825280601f01601f19166020018201604052801561027b5781602001600182028036833780820191505090505b50905060005b60048110156102f65782816004811061029d5761029c610782565b5b1a60f81b8282815181106102b4576102b3610782565b5b60200101907effffffffffffffffffffffffffffffffffffffffffffffffffffffffffffff1916908160001a90535080806102ee9061070a565b915050610281565b50600082604051602401604051602081830303815290604052907bffffffffffffffffffffffffffffffffffffffffffffffffffffffff19166020820180517bffffffffffffffffffffffffffffffffffffffffffffffffffffffff838183161783525050505090508573ffffffffffffffffffffffffffffffffffffffff168160405161038491906105fc565b6000604051808303816000865af19150503d80600081146103c1576040519150601f19603f3d011682016040523d82523d6000602084013e6103c6565b606091505b5094509450505050915091565b600060606000836040516024016103ea9190610643565b6040516020818303038152906040527fd0c1172c000000000000000000000000000000000000000000000000000000007bffffffffffffffffffffffffffffffffffffffffffffffffffffffff19166020820180517bffffffffffffffffffffffffffffffffffffffffffffffffffffffff838183161783525050505090508473ffffffffffffffffffffffffffffffffffffffff168160405161048e91906105fc565b6000604051808303816000865af19150503d80600081146104cb576040519150601f19603f3d011682016040523d82523d6000602084013e6104d0565b606091505b5092509250509250929050565b6000813590506104ec816107f6565b92915050565b6000813590506105018161080d565b92915050565b60006020828403121561051d5761051c6107e0565b5b600061052b848285016104dd565b91505092915050565b6000806040838503121561054b5761054a6107e0565b5b6000610559858286016104dd565b925050602061056a858286016104f2565b9150509250929050565b61057d81610697565b82525050565b600061058e8261065e565b6105988185610669565b93506105a88185602086016106d7565b6105b1816107e5565b840191505092915050565b60006105c78261065e565b6105d1818561067a565b93506105e18185602086016106d7565b80840191505092915050565b6105f6816106a3565b82525050565b600061060882846105bc565b915081905092915050565b60006040820190506106286000830185610574565b818103602083015261063a8184610583565b90509392505050565b600060208201905061065860008301846105ed565b92915050565b600081519050919050565b600082825260208201905092915050565b600081905092915050565b6000610690826106ad565b9050919050565b60008115159050919050565b6000819050919050565b600073ffffffffffffffffffffffffffffffffffffffff82169050919050565b6000819050919050565b60005b838110156106f55780820151818401526020810190506106da565b83811115610704576000848401525b50505050565b6000610715826106cd565b91507fffffffffffffffffffffffffffffffffffffffffffffffffffffffffffffffff82141561074857610747610753565b5b600182019050919050565b7f4e487b7100000000000000000000000000000000000000000000000000000000600052601160045260246000fd5b7f4e487b7100000000000000000000000000000000000000000000000000000000600052603260045260246000fd5b7f4e487b7100000000000000000000000000000000000000000000000000000000600052604160045260246000fd5b600080fd5b6000601f19601f8301169050919050565b6107ff81610685565b811461080a57600080fd5b50565b610816816106a3565b811461082157600080fd5b5056fea26469706673582212202fb70e68498c96669df1b817c56bf5f745bff89124d07916aef27a03e9b1ca7464736f6c63430008070033",
					"opcodes": "PUSH1 0x80 PUSH1 0x40 MSTORE CALLVALUE DUP1 ISZERO PUSH2 0x10 JUMPI PUSH1 0x0 DUP1 REVERT JUMPDEST POP PUSH2 0x85A DUP1 PUSH2 0x20 PUSH1 0x0 CODECOPY PUSH1 0x0 RETURN INVALID PUSH1 0x80 PUSH1 0x40 MSTORE CALLVALUE DUP1 ISZERO PUSH2 0x10 JUMPI PUSH1 0x0 DUP1 REVERT JUMPDEST POP PUSH1 0x4 CALLDATASIZE LT PUSH2 0x4C JUMPI PUSH1 0x0 CALLDATALOAD PUSH1 0xE0 SHR DUP1 PUSH4 0xC55699C EQ PUSH2 0x51 JUMPI DUP1 PUSH4 0x7811C6C1 EQ PUSH2 0x6F JUMPI DUP1 PUSH4 0xA9421619 EQ PUSH2 0xA0 JUMPI DUP1 PUSH4 0xDBA7378E EQ PUSH2 0xD1 JUMPI JUMPDEST PUSH1 0x0 DUP1 REVERT JUMPDEST PUSH2 0x59 PUSH2 0x102 JUMP JUMPDEST PUSH1 0x40 MLOAD PUSH2 0x66 SWAP2 SWAP1 PUSH2 0x643 JUMP JUMPDEST PUSH1 0x40 MLOAD DUP1 SWAP2 SUB SWAP1 RETURN JUMPDEST PUSH2 0x89 PUSH1 0x4 DUP1 CALLDATASIZE SUB DUP2 ADD SWAP1 PUSH2 0x84 SWAP2 SWAP1 PUSH2 0x507 JUMP JUMPDEST PUSH2 0x108 JUMP JUMPDEST PUSH1 0x40 MLOAD PUSH2 0x97 SWAP3 SWAP2 SWAP1 PUSH2 0x613 JUMP JUMPDEST PUSH1 0x40 MLOAD DUP1 SWAP2 SUB SWAP1 RETURN JUMPDEST PUSH2 0xBA PUSH1 0x4 DUP1 CALLDATASIZE SUB DUP2 ADD SWAP1 PUSH2 0xB5 SWAP2 SWAP1 PUSH2 0x507 JUMP JUMPDEST PUSH2 0x203 JUMP JUMPDEST PUSH1 0x40 MLOAD PUSH2 0xC8 SWAP3 SWAP2 SWAP1 PUSH2 0x613 JUMP JUMPDEST PUSH1 0x40 MLOAD DUP1 SWAP2 SUB SWAP1 RETURN JUMPDEST PUSH2 0xEB PUSH1 0x4 DUP1 CALLDATASIZE SUB DUP2 ADD SWAP1 PUSH2 0xE6 SWAP2 SWAP1 PUSH2 0x534 JUMP JUMPDEST PUSH2 0x3D3 JUMP JUMPDEST PUSH1 0x40 MLOAD PUSH2 0xF9 SWAP3 SWAP2 SWAP1 PUSH2 0x613 JUMP JUMPDEST PUSH1 0x40 MLOAD DUP1 SWAP2 SUB SWAP1 RETURN JUMPDEST PUSH1 0x0 SLOAD DUP2 JUMP JUMPDEST PUSH1 0x0 PUSH1 0x60 PUSH1 0x0 PUSH1 0x40 MLOAD PUSH1 0x24 ADD PUSH1 0x40 MLOAD PUSH1 0x20 DUP2 DUP4 SUB SUB DUP2 MSTORE SWAP1 PUSH1 0x40 MSTORE PUSH32 0x371303C000000000000000000000000000000000000000000000000000000000 PUSH28 0xFFFFFFFFFFFFFFFFFFFFFFFFFFFFFFFFFFFFFFFFFFFFFFFFFFFFFFFF NOT AND PUSH1 0x20 DUP3 ADD DUP1 MLOAD PUSH28 0xFFFFFFFFFFFFFFFFFFFFFFFFFFFFFFFFFFFFFFFFFFFFFFFFFFFFFFFF DUP4 DUP2 DUP4 AND OR DUP4 MSTORE POP POP POP POP SWAP1 POP DUP4 PUSH20 0xFFFFFFFFFFFFFFFFFFFFFFFFFFFFFFFFFFFFFFFF AND DUP2 PUSH1 0x40 MLOAD PUSH2 0x1B8 SWAP2 SWAP1 PUSH2 0x5FC JUMP JUMPDEST PUSH1 0x0 PUSH1 0x40 MLOAD DUP1 DUP4 SUB DUP2 DUP6 GAS DELEGATECALL SWAP2 POP POP RETURNDATASIZE DUP1 PUSH1 0x0 DUP2 EQ PUSH2 0x1F3 JUMPI PUSH1 0x40 MLOAD SWAP2 POP PUSH1 0x1F NOT PUSH1 0x3F RETURNDATASIZE ADD AND DUP3 ADD PUSH1 0x40 MSTORE RETURNDATASIZE DUP3 MSTORE RETURNDATASIZE PUSH1 0x0 PUSH1 0x20 DUP5 ADD RETURNDATACOPY PUSH2 0x1F8 JUMP JUMPDEST PUSH1 0x60 SWAP2 POP JUMPDEST POP SWAP3 POP SWAP3 POP POP SWAP2 POP SWAP2 JUMP JUMPDEST PUSH1 0x0 PUSH1 0x60 PUSH1 0x0 PUSH32 0x371303C051BFF726100AD13871CABABF50C20DD920FCA137E519F98F089A74B4 SWAP1 POP PUSH1 0x0 PUSH1 0x4 PUSH8 0xFFFFFFFFFFFFFFFF DUP2 GT ISZERO PUSH2 0x249 JUMPI PUSH2 0x248 PUSH2 0x7B1 JUMP JUMPDEST JUMPDEST PUSH1 0x40 MLOAD SWAP1 DUP1 DUP3 MSTORE DUP1 PUSH1 0x1F ADD PUSH1 0x1F NOT AND PUSH1 0x20 ADD DUP3 ADD PUSH1 0x40 MSTORE DUP1 ISZERO PUSH2 0x27B JUMPI DUP2 PUSH1 0x20 ADD PUSH1 0x1 DUP3 MUL DUP1 CALLDATASIZE DUP4 CALLDATACOPY DUP1 DUP3 ADD SWAP2 POP POP SWAP1 POP JUMPDEST POP SWAP1 POP PUSH1 0x0 JUMPDEST PUSH1 0x4 DUP2 LT ISZERO PUSH2 0x2F6 JUMPI DUP3 DUP2 PUSH1 0x4 DUP2 LT PUSH2 0x29D JUMPI PUSH2 0x29C PUSH2 0x782 JUMP JUMPDEST JUMPDEST BYTE PUSH1 0xF8 SHL DUP3 DUP3 DUP2 MLOAD DUP2 LT PUSH2 0x2B4 JUMPI PUSH2 0x2B3 PUSH2 0x782 JUMP JUMPDEST JUMPDEST PUSH1 0x20 ADD ADD SWAP1 PUSH31 0xFFFFFFFFFFFFFFFFFFFFFFFFFFFFFFFFFFFFFFFFFFFFFFFFFFFFFFFFFFFFFF NOT AND SWAP1 DUP2 PUSH1 0x0 BYTE SWAP1 MSTORE8 POP DUP1 DUP1 PUSH2 0x2EE SWAP1 PUSH2 0x70A JUMP JUMPDEST SWAP2 POP POP PUSH2 0x281 JUMP JUMPDEST POP PUSH1 0x0 DUP3 PUSH1 0x40 MLOAD PUSH1 0x24 ADD PUSH1 0x40 MLOAD PUSH1 0x20 DUP2 DUP4 SUB SUB DUP2 MSTORE SWAP1 PUSH1 0x40 MSTORE SWAP1 PUSH28 0xFFFFFFFFFFFFFFFFFFFFFFFFFFFFFFFFFFFFFFFFFFFFFFFFFFFFFFFF NOT AND PUSH1 0x20 DUP3 ADD DUP1 MLOAD PUSH28 0xFFFFFFFFFFFFFFFFFFFFFFFFFFFFFFFFFFFFFFFFFFFFFFFFFFFFFFFF DUP4 DUP2 DUP4 AND OR DUP4 MSTORE POP POP POP POP SWAP1 POP DUP6 PUSH20 0xFFFFFFFFFFFFFFFFFFFFFFFFFFFFFFFFFFFFFFFF AND DUP2 PUSH1 0x40 MLOAD PUSH2 0x384 SWAP2 SWAP1 PUSH2 0x5FC JUMP JUMPDEST PUSH1 0x0 PUSH1 0x40 MLOAD DUP1 DUP4 SUB DUP2 PUSH1 0x0 DUP7 GAS CALL SWAP2 POP POP RETURNDATASIZE DUP1 PUSH1 0x0 DUP2 EQ PUSH2 0x3C1 JUMPI PUSH1 0x40 MLOAD SWAP2 POP PUSH1 0x1F NOT PUSH1 0x3F RETURNDATASIZE ADD AND DUP3 ADD PUSH1 0x40 MSTORE RETURNDATASIZE DUP3 MSTORE RETURNDATASIZE PUSH1 0x0 PUSH1 0x20 DUP5 ADD RETURNDATACOPY PUSH2 0x3C6 JUMP JUMPDEST PUSH1 0x60 SWAP2 POP JUMPDEST POP SWAP5 POP SWAP5 POP POP POP POP SWAP2 POP SWAP2 JUMP JUMPDEST PUSH1 0x0 PUSH1 0x60 PUSH1 0x0 DUP4 PUSH1 0x40 MLOAD PUSH1 0x24 ADD PUSH2 0x3EA SWAP2 SWAP1 PUSH2 0x643 JUMP JUMPDEST PUSH1 0x40 MLOAD PUSH1 0x20 DUP2 DUP4 SUB SUB DUP2 MSTORE SWAP1 PUSH1 0x40 MSTORE PUSH32 0xD0C1172C00000000000000000000000000000000000000000000000000000000 PUSH28 0xFFFFFFFFFFFFFFFFFFFFFFFFFFFFFFFFFFFFFFFFFFFFFFFFFFFFFFFF NOT AND PUSH1 0x20 DUP3 ADD DUP1 MLOAD PUSH28 0xFFFFFFFFFFFFFFFFFFFFFFFFFFFFFFFFFFFFFFFFFFFFFFFFFFFFFFFF DUP4 DUP2 DUP4 AND OR DUP4 MSTORE POP POP POP POP SWAP1 POP DUP5 PUSH20 0xFFFFFFFFFFFFFFFFFFFFFFFFFFFFFFFFFFFFFFFF AND DUP2 PUSH1 0x40 MLOAD PUSH2 0x48E SWAP2 SWAP1 PUSH2 0x5FC JUMP JUMPDEST PUSH1 0x0 PUSH1 0x40 MLOAD DUP1 DUP4 SUB DUP2 PUSH1 0x0 DUP7 GAS CALL SWAP2 POP POP RETURNDATASIZE DUP1 PUSH1 0x0 DUP2 EQ PUSH2 0x4CB JUMPI PUSH1 0x40 MLOAD SWAP2 POP PUSH1 0x1F NOT PUSH1 0x3F RETURNDATASIZE ADD AND DUP3 ADD PUSH1 0x40 MSTORE RETURNDATASIZE DUP3 MSTORE RETURNDATASIZE PUSH1 0x0 PUSH1 0x20 DUP5 ADD RETURNDATACOPY PUSH2 0x4D0 JUMP JUMPDEST PUSH1 0x60 SWAP2 POP JUMPDEST POP SWAP3 POP SWAP3 POP POP SWAP3 POP SWAP3 SWAP1 POP JUMP JUMPDEST PUSH1 0x0 DUP2 CALLDATALOAD SWAP1 POP PUSH2 0x4EC DUP2 PUSH2 0x7F6 JUMP JUMPDEST SWAP3 SWAP2 POP POP JUMP JUMPDEST PUSH1 0x0 DUP2 CALLDATALOAD SWAP1 POP PUSH2 0x501 DUP2 PUSH2 0x80D JUMP JUMPDEST SWAP3 SWAP2 POP POP JUMP JUMPDEST PUSH1 0x0 PUSH1 0x20 DUP3 DUP5 SUB SLT ISZERO PUSH2 0x51D JUMPI PUSH2 0x51C PUSH2 0x7E0 JUMP JUMPDEST JUMPDEST PUSH1 0x0 PUSH2 0x52B DUP5 DUP3 DUP6 ADD PUSH2 0x4DD JUMP JUMPDEST SWAP2 POP POP SWAP3 SWAP2 POP POP JUMP JUMPDEST PUSH1 0x0 DUP1 PUSH1 0x40 DUP4 DUP6 SUB SLT ISZERO PUSH2 0x54B JUMPI PUSH2 0x54A PUSH2 0x7E0 JUMP JUMPDEST JUMPDEST PUSH1 0x0 PUSH2 0x559 DUP6 DUP3 DUP7 ADD PUSH2 0x4DD JUMP JUMPDEST SWAP3 POP POP PUSH1 0x20 PUSH2 0x56A DUP6 DUP3 DUP7 ADD PUSH2 0x4F2 JUMP JUMPDEST SWAP2 POP POP SWAP3 POP SWAP3 SWAP1 POP JUMP JUMPDEST PUSH2 0x57D DUP2 PUSH2 0x697 JUMP JUMPDEST DUP3 MSTORE POP POP JUMP JUMPDEST PUSH1 0x0 PUSH2 0x58E DUP3 PUSH2 0x65E JUMP JUMPDEST PUSH2 0x598 DUP2 DUP6 PUSH2 0x669 JUMP JUMPDEST SWAP4 POP PUSH2 0x5A8 DUP2 DUP6 PUSH1 0x20 DUP7 ADD PUSH2 0x6D7 JUMP JUMPDEST PUSH2 0x5B1 DUP2 PUSH2 0x7E5 JUMP JUMPDEST DUP5 ADD SWAP2 POP POP SWAP3 SWAP2 POP POP JUMP JUMPDEST PUSH1 0x0 PUSH2 0x5C7 DUP3 PUSH2 0x65E JUMP JUMPDEST PUSH2 0x5D1 DUP2 DUP6 PUSH2 0x67A JUMP JUMPDEST SWAP4 POP PUSH2 0x5E1 DUP2 DUP6 PUSH1 0x20 DUP7 ADD PUSH2 0x6D7 JUMP JUMPDEST DUP1 DUP5 ADD SWAP2 POP POP SWAP3 SWAP2 POP POP JUMP JUMPDEST PUSH2 0x5F6 DUP2 PUSH2 0x6A3 JUMP JUMPDEST DUP3 MSTORE POP POP JUMP JUMPDEST PUSH1 0x0 PUSH2 0x608 DUP3 DUP5 PUSH2 0x5BC JUMP JUMPDEST SWAP2 POP DUP2 SWAP1 POP SWAP3 SWAP2 POP POP JUMP JUMPDEST PUSH1 0x0 PUSH1 0x40 DUP3 ADD SWAP1 POP PUSH2 0x628 PUSH1 0x0 DUP4 ADD DUP6 PUSH2 0x574 JUMP JUMPDEST DUP2 DUP2 SUB PUSH1 0x20 DUP4 ADD MSTORE PUSH2 0x63A DUP2 DUP5 PUSH2 0x583 JUMP JUMPDEST SWAP1 POP SWAP4 SWAP3 POP POP POP JUMP JUMPDEST PUSH1 0x0 PUSH1 0x20 DUP3 ADD SWAP1 POP PUSH2 0x658 PUSH1 0x0 DUP4 ADD DUP5 PUSH2 0x5ED JUMP JUMPDEST SWAP3 SWAP2 POP POP JUMP JUMPDEST PUSH1 0x0 DUP2 MLOAD SWAP1 POP SWAP2 SWAP1 POP JUMP JUMPDEST PUSH1 0x0 DUP3 DUP3 MSTORE PUSH1 0x20 DUP3 ADD SWAP1 POP SWAP3 SWAP2 POP POP JUMP JUMPDEST PUSH1 0x0 DUP2 SWAP1 POP SWAP3 SWAP2 POP POP JUMP JUMPDEST PUSH1 0x0 PUSH2 0x690 DUP3 PUSH2 0x6AD JUMP JUMPDEST SWAP1 POP SWAP2 SWAP1 POP JUMP JUMPDEST PUSH1 0x0 DUP2 ISZERO ISZERO SWAP1 POP SWAP2 SWAP1 POP JUMP JUMPDEST PUSH1 0x0 DUP2 SWAP1 POP SWAP2 SWAP1 POP JUMP JUMPDEST PUSH1 0x0 PUSH20 0xFFFFFFFFFFFFFFFFFFFFFFFFFFFFFFFFFFFFFFFF DUP3 AND SWAP1 POP SWAP2 SWAP1 POP JUMP JUMPDEST PUSH1 0x0 DUP2 SWAP1 POP SWAP2 SWAP1 POP JUMP JUMPDEST PUSH1 0x0 JUMPDEST DUP4 DUP2 LT ISZERO PUSH2 0x6F5 JUMPI DUP1 DUP3 ADD MLOAD DUP2 DUP5 ADD MSTORE PUSH1 0x20 DUP2 ADD SWAP1 POP PUSH2 0x6DA JUMP JUMPDEST DUP4 DUP2 GT ISZERO PUSH2 0x704 JUMPI PUSH1 0x0 DUP5 DUP5 ADD MSTORE JUMPDEST POP POP POP POP JUMP JUMPDEST PUSH1 0x0 PUSH2 0x715 DUP3 PUSH2 0x6CD JUMP JUMPDEST SWAP2 POP PUSH32 0xFFFFFFFFFFFFFFFFFFFFFFFFFFFFFFFFFFFFFFFFFFFFFFFFFFFFFFFFFFFFFFFF DUP3 EQ ISZERO PUSH2 0x748 JUMPI PUSH2 0x747 PUSH2 0x753 JUMP JUMPDEST JUMPDEST PUSH1 0x1 DUP3 ADD SWAP1 POP SWAP2 SWAP1 POP JUMP JUMPDEST PUSH32 0x4E487B7100000000000000000000000000000000000000000000000000000000 PUSH1 0x0 MSTORE PUSH1 0x11 PUSH1 0x4 MSTORE PUSH1 0x24 PUSH1 0x0 REVERT JUMPDEST PUSH32 0x4E487B7100000000000000000000000000000000000000000000000000000000 PUSH1 0x0 MSTORE PUSH1 0x32 PUSH1 0x4 MSTORE PUSH1 0x24 PUSH1 0x0 REVERT JUMPDEST PUSH32 0x4E487B7100000000000000000000000000000000000000000000000000000000 PUSH1 0x0 MSTORE PUSH1 0x41 PUSH1 0x4 MSTORE PUSH1 0x24 PUSH1 0x0 REVERT JUMPDEST PUSH1 0x0 DUP1 REVERT JUMPDEST PUSH1 0x0 PUSH1 0x1F NOT PUSH1 0x1F DUP4 ADD AND SWAP1 POP SWAP2 SWAP1 POP JUMP JUMPDEST PUSH2 0x7FF DUP2 PUSH2 0x685 JUMP JUMPDEST DUP2 EQ PUSH2 0x80A JUMPI PUSH1 0x0 DUP1 REVERT JUMPDEST POP JUMP JUMPDEST PUSH2 0x816 DUP2 PUSH2 0x6A3 JUMP JUMPDEST DUP2 EQ PUSH2 0x821 JUMPI PUSH1 0x0 DUP1 REVERT JUMPDEST POP JUMP INVALID LOG2 PUSH5 0x6970667358 0x22 SLT KECCAK256 0x2F 0xB7 0xE PUSH9 0x498C96669DF1B817C5 PUSH12 0xF5F745BFF89124D07916AEF2 PUSH27 0x3E9B1CA7464736F6C634300080700330000000000000000000000 "
				},
				"gasEstimates": {
					"creation": {
						"codeDepositCost": "427600",
						"executionCost": "461",
						"totalCost": "428061"
					},
					"external": {
						"inc_call(address)": "infinite",
						"inc_call_value(address,int256)": "infinite",
						"inc_callcode(address)": "infinite",
						"x()": "2407"
					}
				},
				"methodIdentifiers": {
					"inc_call(address)": "a9421619",
					"inc_call_value(address,int256)": "dba7378e",
					"inc_callcode(address)": "7811c6c1",
					"x()": "0c55699c"
				}
			},
			"userdoc": {
				"kind": "user",
				"methods": {},
				"version": 1
			}
		}
	}
}