{
	"contracts/ABCall.sol": {
		"C": {
			"abi": [
				{
					"inputs": [],
					"name": "a",
					"outputs": [
						{
							"internalType": "bytes4",
							"name": "",
							"type": "bytes4"
						}
					],
					"stateMutability": "pure",
					"type": "function"
				},
				{
					"inputs": [],
					"name": "b",
					"outputs": [
						{
							"internalType": "bytes4",
							"name": "",
							"type": "bytes4"
						}
					],
					"stateMutability": "pure",
					"type": "function"
				},
				{
					"inputs": [],
					"name": "c",
					"outputs": [
						{
							"internalType": "bool",
							"name": "",
							"type": "bool"
						},
						{
							"internalType": "bytes",
							"name": "",
							"type": "bytes"
						}
					],
					"stateMutability": "nonpayable",
					"type": "function"
				},
				{
					"inputs": [],
					"name": "g",
					"outputs": [
						{
							"internalType": "bytes4",
							"name": "",
							"type": "bytes4"
						}
					],
					"stateMutability": "pure",
					"type": "function"
				}
			],
			"devdoc": {
				"kind": "dev",
				"methods": {},
				"version": 1
			},
			"evm": {
				"assembly": "    /* \"contracts/ABCall.sol\":2224:3078  contract C {... */\n  mstore(0x40, 0x80)\n  callvalue\n  dup1\n  iszero\n  tag_1\n  jumpi\n  0x00\n  dup1\n  revert\ntag_1:\n  pop\n  dataSize(sub_0)\n  dup1\n  dataOffset(sub_0)\n  0x00\n  codecopy\n  0x00\n  return\nstop\n\nsub_0: assembly {\n        /* \"contracts/ABCall.sol\":2224:3078  contract C {... */\n      mstore(0x40, 0x80)\n      callvalue\n      dup1\n      iszero\n      tag_1\n      jumpi\n      0x00\n      dup1\n      revert\n    tag_1:\n      pop\n      jumpi(tag_2, lt(calldatasize, 0x04))\n      shr(0xe0, calldataload(0x00))\n      dup1\n      0x0dbe671f\n      eq\n      tag_3\n      jumpi\n      dup1\n      0x4df7e3d0\n      eq\n      tag_4\n      jumpi\n      dup1\n      0xc3da42b8\n      eq\n      tag_5\n      jumpi\n      dup1\n      0xe2179b8e\n      eq\n      tag_6\n      jumpi\n    tag_2:\n      0x00\n      dup1\n      revert\n        /* \"contracts/ABCall.sol\":2367:2511  function a() public pure returns (bytes4) {... */\n    tag_3:\n      tag_7\n      tag_8\n      jump\t// in\n    tag_7:\n      mload(0x40)\n      tag_9\n      swap2\n      swap1\n      tag_10\n      jump\t// in\n    tag_9:\n      mload(0x40)\n      dup1\n      swap2\n      sub\n      swap1\n      return\n        /* \"contracts/ABCall.sol\":2517:2643  function b() public pure returns (bytes4) {... */\n    tag_4:\n      tag_11\n      tag_12\n      jump\t// in\n    tag_11:\n      mload(0x40)\n      tag_13\n      swap2\n      swap1\n      tag_10\n      jump\t// in\n    tag_13:\n      mload(0x40)\n      dup1\n      swap2\n      sub\n      swap1\n      return\n        /* \"contracts/ABCall.sol\":2649:3076  function c() public returns (bool, bytes memory) {... */\n    tag_5:\n      tag_14\n      tag_15\n      jump\t// in\n    tag_14:\n      mload(0x40)\n      tag_16\n      swap3\n      swap2\n      swap1\n      tag_17\n      jump\t// in\n    tag_16:\n      mload(0x40)\n      dup1\n      swap2\n      sub\n      swap1\n      return\n        /* \"contracts/ABCall.sol\":2241:2361  function g() public pure returns (bytes4) {... */\n    tag_6:\n      tag_18\n      tag_19\n      jump\t// in\n    tag_18:\n      mload(0x40)\n      tag_20\n      swap2\n      swap1\n      tag_10\n      jump\t// in\n    tag_20:\n      mload(0x40)\n      dup1\n      swap2\n      sub\n      swap1\n      return\n        /* \"contracts/ABCall.sol\":2367:2511  function a() public pure returns (bytes4) {... */\n    tag_8:\n        /* \"contracts/ABCall.sol\":2401:2407  bytes4 */\n      0x00\n        /* \"contracts/ABCall.sol\":2487:2503  keccak256(\"g()\") */\n      0xe2179b8e903d3a9a4266eb4432407ea5b1b4f80094f17957da915cd5070a225c\n        /* \"contracts/ABCall.sol\":2473:2504  return bytes4(keccak256(\"g()\")) */\n      swap1\n      pop\n        /* \"contracts/ABCall.sol\":2367:2511  function a() public pure returns (bytes4) {... */\n      swap1\n      jump\t// out\n        /* \"contracts/ABCall.sol\":2517:2643  function b() public pure returns (bytes4) {... */\n    tag_12:\n        /* \"contracts/ABCall.sol\":2551:2557  bytes4 */\n      0x00\n        /* \"contracts/ABCall.sol\":2621:2636  this.g.selector */\n      shl(0xe0, 0xe2179b8e)\n        /* \"contracts/ABCall.sol\":2614:2636  return this.g.selector */\n      swap1\n      pop\n        /* \"contracts/ABCall.sol\":2517:2643  function b() public pure returns (bytes4) {... */\n      swap1\n      jump\t// out\n        /* \"contracts/ABCall.sol\":2649:3076  function c() public returns (bool, bytes memory) {... */\n    tag_15:\n        /* \"contracts/ABCall.sol\":2678:2682  bool */\n      0x00\n        /* \"contracts/ABCall.sol\":2684:2696  bytes memory */\n      0x60\n        /* \"contracts/ABCall.sol\":2708:2722  bytes4 payload */\n      0x00\n        /* \"contracts/ABCall.sol\":2725:2740  this.b.selector */\n      shl(0xe0, 0x4df7e3d0)\n        /* \"contracts/ABCall.sol\":2708:2740  bytes4 payload = this.b.selector */\n      swap1\n      pop\n        /* \"contracts/ABCall.sol\":2751:2768  bytes memory func */\n      0x00\n        /* \"contracts/ABCall.sol\":2781:2782  4 */\n      0x04\n        /* \"contracts/ABCall.sol\":2771:2783  new bytes(4) */\n      0xffffffffffffffff\n      dup2\n      gt\n      iszero\n      tag_24\n      jumpi\n      tag_25\n      tag_26\n      jump\t// in\n    tag_25:\n    tag_24:\n      mload(0x40)\n      swap1\n      dup1\n      dup3\n      mstore\n      dup1\n      0x1f\n      add\n      not(0x1f)\n      and\n      0x20\n      add\n      dup3\n      add\n      0x40\n      mstore\n      dup1\n      iszero\n      tag_27\n      jumpi\n      dup2\n      0x20\n      add\n      0x01\n      dup3\n      mul\n      dup1\n      calldatasize\n      dup4\n      calldatacopy\n      dup1\n      dup3\n      add\n      swap2\n      pop\n      pop\n      swap1\n      pop\n    tag_27:\n      pop\n        /* \"contracts/ABCall.sol\":2751:2783  bytes memory func = new bytes(4) */\n      swap1\n      pop\n        /* \"contracts/ABCall.sol\":2798:2807  uint256 i */\n      0x00\n        /* \"contracts/ABCall.sol\":2793:2870  for (uint256 i = 0; i < 4; i++) {... */\n    tag_28:\n        /* \"contracts/ABCall.sol\":2817:2818  4 */\n      0x04\n        /* \"contracts/ABCall.sol\":2813:2814  i */\n      dup2\n        /* \"contracts/ABCall.sol\":2813:2818  i < 4 */\n      lt\n        /* \"contracts/ABCall.sol\":2793:2870  for (uint256 i = 0; i < 4; i++) {... */\n      iszero\n      tag_29\n      jumpi\n        /* \"contracts/ABCall.sol\":2849:2856  payload */\n      dup3\n        /* \"contracts/ABCall.sol\":2857:2858  i */\n      dup2\n        /* \"contracts/ABCall.sol\":2849:2859  payload[i] */\n      0x04\n      dup2\n      lt\n      tag_31\n      jumpi\n      tag_32\n      tag_33\n      jump\t// in\n    tag_32:\n    tag_31:\n      byte\n      0xf8\n      shl\n        /* \"contracts/ABCall.sol\":2839:2843  func */\n      dup3\n        /* \"contracts/ABCall.sol\":2844:2845  i */\n      dup3\n        /* \"contracts/ABCall.sol\":2839:2846  func[i] */\n      dup2\n      mload\n      dup2\n      lt\n      tag_34\n      jumpi\n      tag_35\n      tag_33\n      jump\t// in\n    tag_35:\n    tag_34:\n      0x20\n      add\n      add\n        /* \"contracts/ABCall.sol\":2839:2859  func[i] = payload[i] */\n      swap1\n      not(0xffffffffffffffffffffffffffffffffffffffffffffffffffffffffffffff)\n      and\n      swap1\n      dup2\n      0x00\n      byte\n      swap1\n      mstore8\n      pop\n        /* \"contracts/ABCall.sol\":2820:2823  i++ */\n      dup1\n      dup1\n      tag_36\n      swap1\n      tag_37\n      jump\t// in\n    tag_36:\n      swap2\n      pop\n      pop\n        /* \"contracts/ABCall.sol\":2793:2870  for (uint256 i = 0; i < 4; i++) {... */\n      jump(tag_28)\n    tag_29:\n      pop\n        /* \"contracts/ABCall.sol\":2982:2997  bytes memory fn */\n      0x00\n        /* \"contracts/ABCall.sol\":3023:3030  payload */\n      dup3\n        /* \"contracts/ABCall.sol\":3000:3031  abi.encodeWithSelector(payload) */\n      add(0x24, mload(0x40))\n      mload(0x40)\n      0x20\n      dup2\n      dup4\n      sub\n      sub\n      dup2\n      mstore\n      swap1\n      0x40\n      mstore\n      swap1\n      not(0xffffffffffffffffffffffffffffffffffffffffffffffffffffffff)\n      and\n      0x20\n      dup3\n      add\n      dup1\n      mload\n      0xffffffffffffffffffffffffffffffffffffffffffffffffffffffff\n      dup4\n      dup2\n      dup4\n      and\n      or\n      dup4\n      mstore\n      pop\n      pop\n      pop\n      pop\n        /* \"contracts/ABCall.sol\":2982:3031  bytes memory fn = abi.encodeWithSelector(payload) */\n      swap1\n      pop\n        /* \"contracts/ABCall.sol\":3055:3059  this */\n      address\n        /* \"contracts/ABCall.sol\":3047:3065  address(this).call */\n      0xffffffffffffffffffffffffffffffffffffffff\n      and\n        /* \"contracts/ABCall.sol\":3066:3068  fn */\n      dup2\n        /* \"contracts/ABCall.sol\":3047:3069  address(this).call(fn) */\n      mload(0x40)\n      tag_38\n      swap2\n      swap1\n      tag_39\n      jump\t// in\n    tag_38:\n      0x00\n      mload(0x40)\n      dup1\n      dup4\n      sub\n      dup2\n      0x00\n      dup7\n      gas\n      call\n      swap2\n      pop\n      pop\n      returndatasize\n      dup1\n      0x00\n      dup2\n      eq\n      tag_42\n      jumpi\n      mload(0x40)\n      swap2\n      pop\n      and(add(returndatasize, 0x3f), not(0x1f))\n      dup3\n      add\n      0x40\n      mstore\n      returndatasize\n      dup3\n      mstore\n      returndatasize\n      0x00\n      0x20\n      dup5\n      add\n      returndatacopy\n      jump(tag_41)\n    tag_42:\n      0x60\n      swap2\n      pop\n    tag_41:\n      pop\n        /* \"contracts/ABCall.sol\":3040:3069  return address(this).call(fn) */\n      swap5\n      pop\n      swap5\n      pop\n      pop\n      pop\n      pop\n        /* \"contracts/ABCall.sol\":2649:3076  function c() public returns (bool, bytes memory) {... */\n      swap1\n      swap2\n      jump\t// out\n        /* \"contracts/ABCall.sol\":2241:2361  function g() public pure returns (bytes4) {... */\n    tag_19:\n        /* \"contracts/ABCall.sol\":2275:2281  bytes4 */\n      0x00\n        /* \"contracts/ABCall.sol\":2342:2354  L.f.selector */\n      shl(0xe0, 0xb3de648b)\n        /* \"contracts/ABCall.sol\":2335:2354  return L.f.selector */\n      swap1\n      pop\n        /* \"contracts/ABCall.sol\":2241:2361  function g() public pure returns (bytes4) {... */\n      swap1\n      jump\t// out\n        /* \"#utility.yul\":7:116   */\n    tag_45:\n        /* \"#utility.yul\":88:109   */\n      tag_47\n        /* \"#utility.yul\":103:108   */\n      dup2\n        /* \"#utility.yul\":88:109   */\n      tag_48\n      jump\t// in\n    tag_47:\n        /* \"#utility.yul\":83:86   */\n      dup3\n        /* \"#utility.yul\":76:110   */\n      mstore\n        /* \"#utility.yul\":7:116   */\n      pop\n      pop\n      jump\t// out\n        /* \"#utility.yul\":122:237   */\n    tag_49:\n        /* \"#utility.yul\":207:230   */\n      tag_51\n        /* \"#utility.yul\":224:229   */\n      dup2\n        /* \"#utility.yul\":207:230   */\n      tag_52\n      jump\t// in\n    tag_51:\n        /* \"#utility.yul\":202:205   */\n      dup3\n        /* \"#utility.yul\":195:231   */\n      mstore\n        /* \"#utility.yul\":122:237   */\n      pop\n      pop\n      jump\t// out\n        /* \"#utility.yul\":243:603   */\n    tag_53:\n        /* \"#utility.yul\":329:332   */\n      0x00\n        /* \"#utility.yul\":357:395   */\n      tag_55\n        /* \"#utility.yul\":389:394   */\n      dup3\n        /* \"#utility.yul\":357:395   */\n      tag_56\n      jump\t// in\n    tag_55:\n        /* \"#utility.yul\":411:481   */\n      tag_57\n        /* \"#utility.yul\":474:480   */\n      dup2\n        /* \"#utility.yul\":469:472   */\n      dup6\n        /* \"#utility.yul\":411:481   */\n      tag_58\n      jump\t// in\n    tag_57:\n        /* \"#utility.yul\":404:481   */\n      swap4\n      pop\n        /* \"#utility.yul\":490:542   */\n      tag_59\n        /* \"#utility.yul\":535:541   */\n      dup2\n        /* \"#utility.yul\":530:533   */\n      dup6\n        /* \"#utility.yul\":523:527   */\n      0x20\n        /* \"#utility.yul\":516:521   */\n      dup7\n        /* \"#utility.yul\":512:528   */\n      add\n        /* \"#utility.yul\":490:542   */\n      tag_60\n      jump\t// in\n    tag_59:\n        /* \"#utility.yul\":567:596   */\n      tag_61\n        /* \"#utility.yul\":589:595   */\n      dup2\n        /* \"#utility.yul\":567:596   */\n      tag_62\n      jump\t// in\n    tag_61:\n        /* \"#utility.yul\":562:565   */\n      dup5\n        /* \"#utility.yul\":558:597   */\n      add\n        /* \"#utility.yul\":551:597   */\n      swap2\n      pop\n        /* \"#utility.yul\":333:603   */\n      pop\n        /* \"#utility.yul\":243:603   */\n      swap3\n      swap2\n      pop\n      pop\n      jump\t// out\n        /* \"#utility.yul\":609:982   */\n    tag_63:\n        /* \"#utility.yul\":713:716   */\n      0x00\n        /* \"#utility.yul\":741:779   */\n      tag_65\n        /* \"#utility.yul\":773:778   */\n      dup3\n        /* \"#utility.yul\":741:779   */\n      tag_56\n      jump\t// in\n    tag_65:\n        /* \"#utility.yul\":795:883   */\n      tag_66\n        /* \"#utility.yul\":876:882   */\n      dup2\n        /* \"#utility.yul\":871:874   */\n      dup6\n        /* \"#utility.yul\":795:883   */\n      tag_67\n      jump\t// in\n    tag_66:\n        /* \"#utility.yul\":788:883   */\n      swap4\n      pop\n        /* \"#utility.yul\":892:944   */\n      tag_68\n        /* \"#utility.yul\":937:943   */\n      dup2\n        /* \"#utility.yul\":932:935   */\n      dup6\n        /* \"#utility.yul\":925:929   */\n      0x20\n        /* \"#utility.yul\":918:923   */\n      dup7\n        /* \"#utility.yul\":914:930   */\n      add\n        /* \"#utility.yul\":892:944   */\n      tag_60\n      jump\t// in\n    tag_68:\n        /* \"#utility.yul\":969:975   */\n      dup1\n        /* \"#utility.yul\":964:967   */\n      dup5\n        /* \"#utility.yul\":960:976   */\n      add\n        /* \"#utility.yul\":953:976   */\n      swap2\n      pop\n        /* \"#utility.yul\":717:982   */\n      pop\n        /* \"#utility.yul\":609:982   */\n      swap3\n      swap2\n      pop\n      pop\n      jump\t// out\n        /* \"#utility.yul\":988:1259   */\n    tag_39:\n        /* \"#utility.yul\":1118:1121   */\n      0x00\n        /* \"#utility.yul\":1140:1233   */\n      tag_70\n        /* \"#utility.yul\":1229:1232   */\n      dup3\n        /* \"#utility.yul\":1220:1226   */\n      dup5\n        /* \"#utility.yul\":1140:1233   */\n      tag_63\n      jump\t// in\n    tag_70:\n        /* \"#utility.yul\":1133:1233   */\n      swap2\n      pop\n        /* \"#utility.yul\":1250:1253   */\n      dup2\n        /* \"#utility.yul\":1243:1253   */\n      swap1\n      pop\n        /* \"#utility.yul\":988:1259   */\n      swap3\n      swap2\n      pop\n      pop\n      jump\t// out\n        /* \"#utility.yul\":1265:1672   */\n    tag_17:\n        /* \"#utility.yul\":1398:1402   */\n      0x00\n        /* \"#utility.yul\":1436:1438   */\n      0x40\n        /* \"#utility.yul\":1425:1434   */\n      dup3\n        /* \"#utility.yul\":1421:1439   */\n      add\n        /* \"#utility.yul\":1413:1439   */\n      swap1\n      pop\n        /* \"#utility.yul\":1449:1514   */\n      tag_72\n        /* \"#utility.yul\":1511:1512   */\n      0x00\n        /* \"#utility.yul\":1500:1509   */\n      dup4\n        /* \"#utility.yul\":1496:1513   */\n      add\n        /* \"#utility.yul\":1487:1493   */\n      dup6\n        /* \"#utility.yul\":1449:1514   */\n      tag_45\n      jump\t// in\n    tag_72:\n        /* \"#utility.yul\":1561:1570   */\n      dup2\n        /* \"#utility.yul\":1555:1559   */\n      dup2\n        /* \"#utility.yul\":1551:1571   */\n      sub\n        /* \"#utility.yul\":1546:1548   */\n      0x20\n        /* \"#utility.yul\":1535:1544   */\n      dup4\n        /* \"#utility.yul\":1531:1549   */\n      add\n        /* \"#utility.yul\":1524:1572   */\n      mstore\n        /* \"#utility.yul\":1589:1665   */\n      tag_73\n        /* \"#utility.yul\":1660:1664   */\n      dup2\n        /* \"#utility.yul\":1651:1657   */\n      dup5\n        /* \"#utility.yul\":1589:1665   */\n      tag_53\n      jump\t// in\n    tag_73:\n        /* \"#utility.yul\":1581:1665   */\n      swap1\n      pop\n        /* \"#utility.yul\":1265:1672   */\n      swap4\n      swap3\n      pop\n      pop\n      pop\n      jump\t// out\n        /* \"#utility.yul\":1678:1896   */\n    tag_10:\n        /* \"#utility.yul\":1769:1773   */\n      0x00\n        /* \"#utility.yul\":1807:1809   */\n      0x20\n        /* \"#utility.yul\":1796:1805   */\n      dup3\n        /* \"#utility.yul\":1792:1810   */\n      add\n        /* \"#utility.yul\":1784:1810   */\n      swap1\n      pop\n        /* \"#utility.yul\":1820:1889   */\n      tag_75\n        /* \"#utility.yul\":1886:1887   */\n      0x00\n        /* \"#utility.yul\":1875:1884   */\n      dup4\n        /* \"#utility.yul\":1871:1888   */\n      add\n        /* \"#utility.yul\":1862:1868   */\n      dup5\n        /* \"#utility.yul\":1820:1889   */\n      tag_49\n      jump\t// in\n    tag_75:\n        /* \"#utility.yul\":1678:1896   */\n      swap3\n      swap2\n      pop\n      pop\n      jump\t// out\n        /* \"#utility.yul\":1902:2000   */\n    tag_56:\n        /* \"#utility.yul\":1953:1959   */\n      0x00\n        /* \"#utility.yul\":1987:1992   */\n      dup2\n        /* \"#utility.yul\":1981:1993   */\n      mload\n        /* \"#utility.yul\":1971:1993   */\n      swap1\n      pop\n        /* \"#utility.yul\":1902:2000   */\n      swap2\n      swap1\n      pop\n      jump\t// out\n        /* \"#utility.yul\":2006:2174   */\n    tag_58:\n        /* \"#utility.yul\":2089:2100   */\n      0x00\n        /* \"#utility.yul\":2123:2129   */\n      dup3\n        /* \"#utility.yul\":2118:2121   */\n      dup3\n        /* \"#utility.yul\":2111:2130   */\n      mstore\n        /* \"#utility.yul\":2163:2167   */\n      0x20\n        /* \"#utility.yul\":2158:2161   */\n      dup3\n        /* \"#utility.yul\":2154:2168   */\n      add\n        /* \"#utility.yul\":2139:2168   */\n      swap1\n      pop\n        /* \"#utility.yul\":2006:2174   */\n      swap3\n      swap2\n      pop\n      pop\n      jump\t// out\n        /* \"#utility.yul\":2180:2327   */\n    tag_67:\n        /* \"#utility.yul\":2281:2292   */\n      0x00\n        /* \"#utility.yul\":2318:2321   */\n      dup2\n        /* \"#utility.yul\":2303:2321   */\n      swap1\n      pop\n        /* \"#utility.yul\":2180:2327   */\n      swap3\n      swap2\n      pop\n      pop\n      jump\t// out\n        /* \"#utility.yul\":2333:2423   */\n    tag_48:\n        /* \"#utility.yul\":2367:2374   */\n      0x00\n        /* \"#utility.yul\":2410:2415   */\n      dup2\n        /* \"#utility.yul\":2403:2416   */\n      iszero\n        /* \"#utility.yul\":2396:2417   */\n      iszero\n        /* \"#utility.yul\":2385:2417   */\n      swap1\n      pop\n        /* \"#utility.yul\":2333:2423   */\n      swap2\n      swap1\n      pop\n      jump\t// out\n        /* \"#utility.yul\":2429:2578   */\n    tag_52:\n        /* \"#utility.yul\":2465:2472   */\n      0x00\n        /* \"#utility.yul\":2505:2571   */\n      0xffffffff00000000000000000000000000000000000000000000000000000000\n        /* \"#utility.yul\":2498:2503   */\n      dup3\n        /* \"#utility.yul\":2494:2572   */\n      and\n        /* \"#utility.yul\":2483:2572   */\n      swap1\n      pop\n        /* \"#utility.yul\":2429:2578   */\n      swap2\n      swap1\n      pop\n      jump\t// out\n        /* \"#utility.yul\":2584:2661   */\n    tag_81:\n        /* \"#utility.yul\":2621:2628   */\n      0x00\n        /* \"#utility.yul\":2650:2655   */\n      dup2\n        /* \"#utility.yul\":2639:2655   */\n      swap1\n      pop\n        /* \"#utility.yul\":2584:2661   */\n      swap2\n      swap1\n      pop\n      jump\t// out\n        /* \"#utility.yul\":2667:2974   */\n    tag_60:\n        /* \"#utility.yul\":2735:2736   */\n      0x00\n        /* \"#utility.yul\":2745:2858   */\n    tag_84:\n        /* \"#utility.yul\":2759:2765   */\n      dup4\n        /* \"#utility.yul\":2756:2757   */\n      dup2\n        /* \"#utility.yul\":2753:2766   */\n      lt\n        /* \"#utility.yul\":2745:2858   */\n      iszero\n      tag_86\n      jumpi\n        /* \"#utility.yul\":2844:2845   */\n      dup1\n        /* \"#utility.yul\":2839:2842   */\n      dup3\n        /* \"#utility.yul\":2835:2846   */\n      add\n        /* \"#utility.yul\":2829:2847   */\n      mload\n        /* \"#utility.yul\":2825:2826   */\n      dup2\n        /* \"#utility.yul\":2820:2823   */\n      dup5\n        /* \"#utility.yul\":2816:2827   */\n      add\n        /* \"#utility.yul\":2809:2848   */\n      mstore\n        /* \"#utility.yul\":2781:2783   */\n      0x20\n        /* \"#utility.yul\":2778:2779   */\n      dup2\n        /* \"#utility.yul\":2774:2784   */\n      add\n        /* \"#utility.yul\":2769:2784   */\n      swap1\n      pop\n        /* \"#utility.yul\":2745:2858   */\n      jump(tag_84)\n    tag_86:\n        /* \"#utility.yul\":2876:2882   */\n      dup4\n        /* \"#utility.yul\":2873:2874   */\n      dup2\n        /* \"#utility.yul\":2870:2883   */\n      gt\n        /* \"#utility.yul\":2867:2968   */\n      iszero\n      tag_87\n      jumpi\n        /* \"#utility.yul\":2956:2957   */\n      0x00\n        /* \"#utility.yul\":2947:2953   */\n      dup5\n        /* \"#utility.yul\":2942:2945   */\n      dup5\n        /* \"#utility.yul\":2938:2954   */\n      add\n        /* \"#utility.yul\":2931:2958   */\n      mstore\n        /* \"#utility.yul\":2867:2968   */\n    tag_87:\n        /* \"#utility.yul\":2716:2974   */\n      pop\n        /* \"#utility.yul\":2667:2974   */\n      pop\n      pop\n      pop\n      jump\t// out\n        /* \"#utility.yul\":2980:3213   */\n    tag_37:\n        /* \"#utility.yul\":3019:3022   */\n      0x00\n        /* \"#utility.yul\":3042:3066   */\n      tag_89\n        /* \"#utility.yul\":3060:3065   */\n      dup3\n        /* \"#utility.yul\":3042:3066   */\n      tag_81\n      jump\t// in\n    tag_89:\n        /* \"#utility.yul\":3033:3066   */\n      swap2\n      pop\n        /* \"#utility.yul\":3088:3154   */\n      0xffffffffffffffffffffffffffffffffffffffffffffffffffffffffffffffff\n        /* \"#utility.yul\":3081:3086   */\n      dup3\n        /* \"#utility.yul\":3078:3155   */\n      eq\n        /* \"#utility.yul\":3075:3178   */\n      iszero\n      tag_90\n      jumpi\n        /* \"#utility.yul\":3158:3176   */\n      tag_91\n      tag_92\n      jump\t// in\n    tag_91:\n        /* \"#utility.yul\":3075:3178   */\n    tag_90:\n        /* \"#utility.yul\":3205:3206   */\n      0x01\n        /* \"#utility.yul\":3198:3203   */\n      dup3\n        /* \"#utility.yul\":3194:3207   */\n      add\n        /* \"#utility.yul\":3187:3207   */\n      swap1\n      pop\n        /* \"#utility.yul\":2980:3213   */\n      swap2\n      swap1\n      pop\n      jump\t// out\n        /* \"#utility.yul\":3219:3399   */\n    tag_92:\n        /* \"#utility.yul\":3267:3344   */\n      0x4e487b7100000000000000000000000000000000000000000000000000000000\n        /* \"#utility.yul\":3264:3265   */\n      0x00\n        /* \"#utility.yul\":3257:3345   */\n      mstore\n        /* \"#utility.yul\":3364:3368   */\n      0x11\n        /* \"#utility.yul\":3361:3362   */\n      0x04\n        /* \"#utility.yul\":3354:3369   */\n      mstore\n        /* \"#utility.yul\":3388:3392   */\n      0x24\n        /* \"#utility.yul\":3385:3386   */\n      0x00\n        /* \"#utility.yul\":3378:3393   */\n      revert\n        /* \"#utility.yul\":3405:3585   */\n    tag_33:\n        /* \"#utility.yul\":3453:3530   */\n      0x4e487b7100000000000000000000000000000000000000000000000000000000\n        /* \"#utility.yul\":3450:3451   */\n      0x00\n        /* \"#utility.yul\":3443:3531   */\n      mstore\n        /* \"#utility.yul\":3550:3554   */\n      0x32\n        /* \"#utility.yul\":3547:3548   */\n      0x04\n        /* \"#utility.yul\":3540:3555   */\n      mstore\n        /* \"#utility.yul\":3574:3578   */\n      0x24\n        /* \"#utility.yul\":3571:3572   */\n      0x00\n        /* \"#utility.yul\":3564:3579   */\n      revert\n        /* \"#utility.yul\":3591:3771   */\n    tag_26:\n        /* \"#utility.yul\":3639:3716   */\n      0x4e487b7100000000000000000000000000000000000000000000000000000000\n        /* \"#utility.yul\":3636:3637   */\n      0x00\n        /* \"#utility.yul\":3629:3717   */\n      mstore\n        /* \"#utility.yul\":3736:3740   */\n      0x41\n        /* \"#utility.yul\":3733:3734   */\n      0x04\n        /* \"#utility.yul\":3726:3741   */\n      mstore\n        /* \"#utility.yul\":3760:3764   */\n      0x24\n        /* \"#utility.yul\":3757:3758   */\n      0x00\n        /* \"#utility.yul\":3750:3765   */\n      revert\n        /* \"#utility.yul\":3777:3879   */\n    tag_62:\n        /* \"#utility.yul\":3818:3824   */\n      0x00\n        /* \"#utility.yul\":3869:3871   */\n      0x1f\n        /* \"#utility.yul\":3865:3872   */\n      not\n        /* \"#utility.yul\":3860:3862   */\n      0x1f\n        /* \"#utility.yul\":3853:3858   */\n      dup4\n        /* \"#utility.yul\":3849:3863   */\n      add\n        /* \"#utility.yul\":3845:3873   */\n      and\n        /* \"#utility.yul\":3835:3873   */\n      swap1\n      pop\n        /* \"#utility.yul\":3777:3879   */\n      swap2\n      swap1\n      pop\n      jump\t// out\n\n    auxdata: 0xa2646970667358221220e10811ed8f294dfbfed812714fd89949223af57dd0c6fdb1993fe4f2261594ed64736f6c63430008070033\n}\n",
				"bytecode": {
					"linkReferences": {},
					"object": "608060405234801561001057600080fd5b50610569806100206000396000f3fe608060405234801561001057600080fd5b506004361061004c5760003560e01c80630dbe671f146100515780634df7e3d01461006f578063c3da42b81461008d578063e2179b8e146100ac575b600080fd5b6100596100ca565b6040516100669190610395565b60405180910390f35b6100776100f2565b6040516100849190610395565b60405180910390f35b610095610101565b6040516100a3929190610365565b60405180910390f35b6100b46102b7565b6040516100c19190610395565b60405180910390f35b60007fe2179b8e903d3a9a4266eb4432407ea5b1b4f80094f17957da915cd5070a225c905090565b600063e2179b8e60e01b905090565b600060606000634df7e3d060e01b90506000600467ffffffffffffffff81111561012e5761012d6104f3565b5b6040519080825280601f01601f1916602001820160405280156101605781602001600182028036833780820191505090505b50905060005b60048110156101db57828160048110610182576101816104c4565b5b1a60f81b828281518110610199576101986104c4565b5b60200101907effffffffffffffffffffffffffffffffffffffffffffffffffffffffffffff1916908160001a90535080806101d39061044c565b915050610166565b50600082604051602401604051602081830303815290604052907bffffffffffffffffffffffffffffffffffffffffffffffffffffffff19166020820180517bffffffffffffffffffffffffffffffffffffffffffffffffffffffff838183161783525050505090503073ffffffffffffffffffffffffffffffffffffffff1681604051610269919061034e565b6000604051808303816000865af19150503d80600081146102a6576040519150601f19603f3d011682016040523d82523d6000602084013e6102ab565b606091505b50945094505050509091565b600063b3de648b60e01b905090565b6102cf816103d7565b82525050565b6102de816103e3565b82525050565b60006102ef826103b0565b6102f981856103bb565b9350610309818560208601610419565b61031281610522565b840191505092915050565b6000610328826103b0565b61033281856103cc565b9350610342818560208601610419565b80840191505092915050565b600061035a828461031d565b915081905092915050565b600060408201905061037a60008301856102c6565b818103602083015261038c81846102e4565b90509392505050565b60006020820190506103aa60008301846102d5565b92915050565b600081519050919050565b600082825260208201905092915050565b600081905092915050565b60008115159050919050565b60007fffffffff0000000000000000000000000000000000000000000000000000000082169050919050565b6000819050919050565b60005b8381101561043757808201518184015260208101905061041c565b83811115610446576000848401525b50505050565b60006104578261040f565b91507fffffffffffffffffffffffffffffffffffffffffffffffffffffffffffffffff82141561048a57610489610495565b5b600182019050919050565b7f4e487b7100000000000000000000000000000000000000000000000000000000600052601160045260246000fd5b7f4e487b7100000000000000000000000000000000000000000000000000000000600052603260045260246000fd5b7f4e487b7100000000000000000000000000000000000000000000000000000000600052604160045260246000fd5b6000601f19601f830116905091905056fea2646970667358221220e10811ed8f294dfbfed812714fd89949223af57dd0c6fdb1993fe4f2261594ed64736f6c63430008070033",
					"opcodes": "PUSH1 0x80 PUSH1 0x40 MSTORE CALLVALUE DUP1 ISZERO PUSH2 0x10 JUMPI PUSH1 0x0 DUP1 REVERT JUMPDEST POP PUSH2 0x569 DUP1 PUSH2 0x20 PUSH1 0x0 CODECOPY PUSH1 0x0 RETURN INVALID PUSH1 0x80 PUSH1 0x40 MSTORE CALLVALUE DUP1 ISZERO PUSH2 0x10 JUMPI PUSH1 0x0 DUP1 REVERT JUMPDEST POP PUSH1 0x4 CALLDATASIZE LT PUSH2 0x4C JUMPI PUSH1 0x0 CALLDATALOAD PUSH1 0xE0 SHR DUP1 PUSH4 0xDBE671F EQ PUSH2 0x51 JUMPI DUP1 PUSH4 0x4DF7E3D0 EQ PUSH2 0x6F JUMPI DUP1 PUSH4 0xC3DA42B8 EQ PUSH2 0x8D JUMPI DUP1 PUSH4 0xE2179B8E EQ PUSH2 0xAC JUMPI JUMPDEST PUSH1 0x0 DUP1 REVERT JUMPDEST PUSH2 0x59 PUSH2 0xCA JUMP JUMPDEST PUSH1 0x40 MLOAD PUSH2 0x66 SWAP2 SWAP1 PUSH2 0x395 JUMP JUMPDEST PUSH1 0x40 MLOAD DUP1 SWAP2 SUB SWAP1 RETURN JUMPDEST PUSH2 0x77 PUSH2 0xF2 JUMP JUMPDEST PUSH1 0x40 MLOAD PUSH2 0x84 SWAP2 SWAP1 PUSH2 0x395 JUMP JUMPDEST PUSH1 0x40 MLOAD DUP1 SWAP2 SUB SWAP1 RETURN JUMPDEST PUSH2 0x95 PUSH2 0x101 JUMP JUMPDEST PUSH1 0x40 MLOAD PUSH2 0xA3 SWAP3 SWAP2 SWAP1 PUSH2 0x365 JUMP JUMPDEST PUSH1 0x40 MLOAD DUP1 SWAP2 SUB SWAP1 RETURN JUMPDEST PUSH2 0xB4 PUSH2 0x2B7 JUMP JUMPDEST PUSH1 0x40 MLOAD PUSH2 0xC1 SWAP2 SWAP1 PUSH2 0x395 JUMP JUMPDEST PUSH1 0x40 MLOAD DUP1 SWAP2 SUB SWAP1 RETURN JUMPDEST PUSH1 0x0 PUSH32 0xE2179B8E903D3A9A4266EB4432407EA5B1B4F80094F17957DA915CD5070A225C SWAP1 POP SWAP1 JUMP JUMPDEST PUSH1 0x0 PUSH4 0xE2179B8E PUSH1 0xE0 SHL SWAP1 POP SWAP1 JUMP JUMPDEST PUSH1 0x0 PUSH1 0x60 PUSH1 0x0 PUSH4 0x4DF7E3D0 PUSH1 0xE0 SHL SWAP1 POP PUSH1 0x0 PUSH1 0x4 PUSH8 0xFFFFFFFFFFFFFFFF DUP2 GT ISZERO PUSH2 0x12E JUMPI PUSH2 0x12D PUSH2 0x4F3 JUMP JUMPDEST JUMPDEST PUSH1 0x40 MLOAD SWAP1 DUP1 DUP3 MSTORE DUP1 PUSH1 0x1F ADD PUSH1 0x1F NOT AND PUSH1 0x20 ADD DUP3 ADD PUSH1 0x40 MSTORE DUP1 ISZERO PUSH2 0x160 JUMPI DUP2 PUSH1 0x20 ADD PUSH1 0x1 DUP3 MUL DUP1 CALLDATASIZE DUP4 CALLDATACOPY DUP1 DUP3 ADD SWAP2 POP POP SWAP1 POP JUMPDEST POP SWAP1 POP PUSH1 0x0 JUMPDEST PUSH1 0x4 DUP2 LT ISZERO PUSH2 0x1DB JUMPI DUP3 DUP2 PUSH1 0x4 DUP2 LT PUSH2 0x182 JUMPI PUSH2 0x181 PUSH2 0x4C4 JUMP JUMPDEST JUMPDEST BYTE PUSH1 0xF8 SHL DUP3 DUP3 DUP2 MLOAD DUP2 LT PUSH2 0x199 JUMPI PUSH2 0x198 PUSH2 0x4C4 JUMP JUMPDEST JUMPDEST PUSH1 0x20 ADD ADD SWAP1 PUSH31 0xFFFFFFFFFFFFFFFFFFFFFFFFFFFFFFFFFFFFFFFFFFFFFFFFFFFFFFFFFFFFFF NOT AND SWAP1 DUP2 PUSH1 0x0 BYTE SWAP1 MSTORE8 POP DUP1 DUP1 PUSH2 0x1D3 SWAP1 PUSH2 0x44C JUMP JUMPDEST SWAP2 POP POP PUSH2 0x166 JUMP JUMPDEST POP PUSH1 0x0 DUP3 PUSH1 0x40 MLOAD PUSH1 0x24 ADD PUSH1 0x40 MLOAD PUSH1 0x20 DUP2 DUP4 SUB SUB DUP2 MSTORE SWAP1 PUSH1 0x40 MSTORE SWAP1 PUSH28 0xFFFFFFFFFFFFFFFFFFFFFFFFFFFFFFFFFFFFFFFFFFFFFFFFFFFFFFFF NOT AND PUSH1 0x20 DUP3 ADD DUP1 MLOAD PUSH28 0xFFFFFFFFFFFFFFFFFFFFFFFFFFFFFFFFFFFFFFFFFFFFFFFFFFFFFFFF DUP4 DUP2 DUP4 AND OR DUP4 MSTORE POP POP POP POP SWAP1 POP ADDRESS PUSH20 0xFFFFFFFFFFFFFFFFFFFFFFFFFFFFFFFFFFFFFFFF AND DUP2 PUSH1 0x40 MLOAD PUSH2 0x269 SWAP2 SWAP1 PUSH2 0x34E JUMP JUMPDEST PUSH1 0x0 PUSH1 0x40 MLOAD DUP1 DUP4 SUB DUP2 PUSH1 0x0 DUP7 GAS CALL SWAP2 POP POP RETURNDATASIZE DUP1 PUSH1 0x0 DUP2 EQ PUSH2 0x2A6 JUMPI PUSH1 0x40 MLOAD SWAP2 POP PUSH1 0x1F NOT PUSH1 0x3F RETURNDATASIZE ADD AND DUP3 ADD PUSH1 0x40 MSTORE RETURNDATASIZE DUP3 MSTORE RETURNDATASIZE PUSH1 0x0 PUSH1 0x20 DUP5 ADD RETURNDATACOPY PUSH2 0x2AB JUMP JUMPDEST PUSH1 0x60 SWAP2 POP JUMPDEST POP SWAP5 POP SWAP5 POP POP POP POP SWAP1 SWAP2 JUMP JUMPDEST PUSH1 0x0 PUSH4 0xB3DE648B PUSH1 0xE0 SHL SWAP1 POP SWAP1 JUMP JUMPDEST PUSH2 0x2CF DUP2 PUSH2 0x3D7 JUMP JUMPDEST DUP3 MSTORE POP POP JUMP JUMPDEST PUSH2 0x2DE DUP2 PUSH2 0x3E3 JUMP JUMPDEST DUP3 MSTORE POP POP JUMP JUMPDEST PUSH1 0x0 PUSH2 0x2EF DUP3 PUSH2 0x3B0 JUMP JUMPDEST PUSH2 0x2F9 DUP2 DUP6 PUSH2 0x3BB JUMP JUMPDEST SWAP4 POP PUSH2 0x309 DUP2 DUP6 PUSH1 0x20 DUP7 ADD PUSH2 0x419 JUMP JUMPDEST PUSH2 0x312 DUP2 PUSH2 0x522 JUMP JUMPDEST DUP5 ADD SWAP2 POP POP SWAP3 SWAP2 POP POP JUMP JUMPDEST PUSH1 0x0 PUSH2 0x328 DUP3 PUSH2 0x3B0 JUMP JUMPDEST PUSH2 0x332 DUP2 DUP6 PUSH2 0x3CC JUMP JUMPDEST SWAP4 POP PUSH2 0x342 DUP2 DUP6 PUSH1 0x20 DUP7 ADD PUSH2 0x419 JUMP JUMPDEST DUP1 DUP5 ADD SWAP2 POP POP SWAP3 SWAP2 POP POP JUMP JUMPDEST PUSH1 0x0 PUSH2 0x35A DUP3 DUP5 PUSH2 0x31D JUMP JUMPDEST SWAP2 POP DUP2 SWAP1 POP SWAP3 SWAP2 POP POP JUMP JUMPDEST PUSH1 0x0 PUSH1 0x40 DUP3 ADD SWAP1 POP PUSH2 0x37A PUSH1 0x0 DUP4 ADD DUP6 PUSH2 0x2C6 JUMP JUMPDEST DUP2 DUP2 SUB PUSH1 0x20 DUP4 ADD MSTORE PUSH2 0x38C DUP2 DUP5 PUSH2 0x2E4 JUMP JUMPDEST SWAP1 POP SWAP4 SWAP3 POP POP POP JUMP JUMPDEST PUSH1 0x0 PUSH1 0x20 DUP3 ADD SWAP1 POP PUSH2 0x3AA PUSH1 0x0 DUP4 ADD DUP5 PUSH2 0x2D5 JUMP JUMPDEST SWAP3 SWAP2 POP POP JUMP JUMPDEST PUSH1 0x0 DUP2 MLOAD SWAP1 POP SWAP2 SWAP1 POP JUMP JUMPDEST PUSH1 0x0 DUP3 DUP3 MSTORE PUSH1 0x20 DUP3 ADD SWAP1 POP SWAP3 SWAP2 POP POP JUMP JUMPDEST PUSH1 0x0 DUP2 SWAP1 POP SWAP3 SWAP2 POP POP JUMP JUMPDEST PUSH1 0x0 DUP2 ISZERO ISZERO SWAP1 POP SWAP2 SWAP1 POP JUMP JUMPDEST PUSH1 0x0 PUSH32 0xFFFFFFFF00000000000000000000000000000000000000000000000000000000 DUP3 AND SWAP1 POP SWAP2 SWAP1 POP JUMP JUMPDEST PUSH1 0x0 DUP2 SWAP1 POP SWAP2 SWAP1 POP JUMP JUMPDEST PUSH1 0x0 JUMPDEST DUP4 DUP2 LT ISZERO PUSH2 0x437 JUMPI DUP1 DUP3 ADD MLOAD DUP2 DUP5 ADD MSTORE PUSH1 0x20 DUP2 ADD SWAP1 POP PUSH2 0x41C JUMP JUMPDEST DUP4 DUP2 GT ISZERO PUSH2 0x446 JUMPI PUSH1 0x0 DUP5 DUP5 ADD MSTORE JUMPDEST POP POP POP POP JUMP JUMPDEST PUSH1 0x0 PUSH2 0x457 DUP3 PUSH2 0x40F JUMP JUMPDEST SWAP2 POP PUSH32 0xFFFFFFFFFFFFFFFFFFFFFFFFFFFFFFFFFFFFFFFFFFFFFFFFFFFFFFFFFFFFFFFF DUP3 EQ ISZERO PUSH2 0x48A JUMPI PUSH2 0x489 PUSH2 0x495 JUMP JUMPDEST JUMPDEST PUSH1 0x1 DUP3 ADD SWAP1 POP SWAP2 SWAP1 POP JUMP JUMPDEST PUSH32 0x4E487B7100000000000000000000000000000000000000000000000000000000 PUSH1 0x0 MSTORE PUSH1 0x11 PUSH1 0x4 MSTORE PUSH1 0x24 PUSH1 0x0 REVERT JUMPDEST PUSH32 0x4E487B7100000000000000000000000000000000000000000000000000000000 PUSH1 0x0 MSTORE PUSH1 0x32 PUSH1 0x4 MSTORE PUSH1 0x24 PUSH1 0x0 REVERT JUMPDEST PUSH32 0x4E487B7100000000000000000000000000000000000000000000000000000000 PUSH1 0x0 MSTORE PUSH1 0x41 PUSH1 0x4 MSTORE PUSH1 0x24 PUSH1 0x0 REVERT JUMPDEST PUSH1 0x0 PUSH1 0x1F NOT PUSH1 0x1F DUP4 ADD AND SWAP1 POP SWAP2 SWAP1 POP JUMP INVALID LOG2 PUSH5 0x6970667358 0x22 SLT KECCAK256 0xE1 ADDMOD GT 0xED DUP16 0x29 0x4D 0xFB INVALID 0xD8 SLT PUSH18 0x4FD89949223AF57DD0C6FDB1993FE4F22615 SWAP5 0xED PUSH5 0x736F6C6343 STOP ADDMOD SMOD STOP CALLER "
				},
				"gasEstimates": {
					"creation": {
						"codeDepositCost": "277000",
						"executionCost": "318",
						"totalCost": "277318"
					},
					"external": {
						"a()": "321",
						"b()": "349",
						"c()": "infinite",
						"g()": "393"
					}
				},
				"methodIdentifiers": {
					"a()": "0dbe671f",
					"b()": "4df7e3d0",
					"c()": "c3da42b8",
					"g()": "e2179b8e"
				}
			},
			"userdoc": {
				"kind": "user",
				"methods": {},
				"version": 1
			}
		}
	}
}