{
	"contracts/Demo/HqDemo.sol": {
		"HqDemo": {
			"abi": [
				{
					"inputs": [
						{
							"components": [
								{
									"internalType": "uint256",
									"name": "id",
									"type": "uint256"
								},
								{
									"internalType": "uint256",
									"name": "age",
									"type": "uint256"
								},
								{
									"internalType": "uint256",
									"name": "sex",
									"type": "uint256"
								}
							],
							"internalType": "struct HqDemo.User",
							"name": "u",
							"type": "tuple"
						}
					],
					"name": "getUser",
					"outputs": [
						{
							"internalType": "uint256",
							"name": "",
							"type": "uint256"
						}
					],
					"stateMutability": "nonpayable",
					"type": "function"
				}
			],
			"devdoc": {
				"kind": "dev",
				"methods": {},
				"version": 1
			},
			"evm": {
				"assembly": "    /* \"contracts/Demo/HqDemo.sol\":68:265  contract HqDemo{... */\n  mstore(0x40, 0x80)\n  callvalue\n  dup1\n  iszero\n  tag_1\n  jumpi\n  0x00\n  dup1\n  revert\ntag_1:\n  pop\n  dataSize(sub_0)\n  dup1\n  dataOffset(sub_0)\n  0x00\n  codecopy\n  0x00\n  return\nstop\n\nsub_0: assembly {\n        /* \"contracts/Demo/HqDemo.sol\":68:265  contract HqDemo{... */\n      mstore(0x40, 0x80)\n      callvalue\n      dup1\n      iszero\n      tag_1\n      jumpi\n      0x00\n      dup1\n      revert\n    tag_1:\n      pop\n      jumpi(tag_2, lt(calldatasize, 0x04))\n      shr(0xe0, calldataload(0x00))\n      dup1\n      0xc21eb265\n      eq\n      tag_3\n      jumpi\n    tag_2:\n      0x00\n      dup1\n      revert\n        /* \"contracts/Demo/HqDemo.sol\":176:262  function getUser(User calldata u) public returns(uint256){... */\n    tag_3:\n      tag_4\n      0x04\n      dup1\n      calldatasize\n      sub\n      dup2\n      add\n      swap1\n      tag_5\n      swap2\n      swap1\n      tag_6\n      jump\t// in\n    tag_5:\n      tag_7\n      jump\t// in\n    tag_4:\n      mload(0x40)\n      tag_8\n      swap2\n      swap1\n      tag_9\n      jump\t// in\n    tag_8:\n      mload(0x40)\n      dup1\n      swap2\n      sub\n      swap1\n      return\n    tag_7:\n        /* \"contracts/Demo/HqDemo.sol\":225:232  uint256 */\n      0x00\n        /* \"contracts/Demo/HqDemo.sol\":251:252  u */\n      dup2\n        /* \"contracts/Demo/HqDemo.sol\":251:255  u.id */\n      0x00\n      add\n      calldataload\n        /* \"contracts/Demo/HqDemo.sol\":243:255  return  u.id */\n      swap1\n      pop\n        /* \"contracts/Demo/HqDemo.sol\":176:262  function getUser(User calldata u) public returns(uint256){... */\n      swap2\n      swap1\n      pop\n      jump\t// out\n        /* \"#utility.yul\":33:258   */\n    tag_12:\n        /* \"#utility.yul\":100:105   */\n      0x00\n        /* \"#utility.yul\":141:143   */\n      0x60\n        /* \"#utility.yul\":132:138   */\n      dup3\n        /* \"#utility.yul\":127:130   */\n      dup5\n        /* \"#utility.yul\":123:139   */\n      sub\n        /* \"#utility.yul\":119:144   */\n      slt\n        /* \"#utility.yul\":116:228   */\n      iszero\n      tag_14\n      jumpi\n        /* \"#utility.yul\":147:226   */\n      tag_15\n      tag_16\n      jump\t// in\n    tag_15:\n        /* \"#utility.yul\":116:228   */\n    tag_14:\n        /* \"#utility.yul\":246:252   */\n      dup2\n        /* \"#utility.yul\":237:252   */\n      swap1\n      pop\n        /* \"#utility.yul\":33:258   */\n      swap3\n      swap2\n      pop\n      pop\n      jump\t// out\n        /* \"#utility.yul\":264:635   */\n    tag_6:\n        /* \"#utility.yul\":344:350   */\n      0x00\n        /* \"#utility.yul\":393:395   */\n      0x60\n        /* \"#utility.yul\":381:390   */\n      dup3\n        /* \"#utility.yul\":372:379   */\n      dup5\n        /* \"#utility.yul\":368:391   */\n      sub\n        /* \"#utility.yul\":364:396   */\n      slt\n        /* \"#utility.yul\":361:480   */\n      iszero\n      tag_18\n      jumpi\n        /* \"#utility.yul\":399:478   */\n      tag_19\n      tag_20\n      jump\t// in\n    tag_19:\n        /* \"#utility.yul\":361:480   */\n    tag_18:\n        /* \"#utility.yul\":519:520   */\n      0x00\n        /* \"#utility.yul\":544:618   */\n      tag_21\n        /* \"#utility.yul\":610:617   */\n      dup5\n        /* \"#utility.yul\":601:607   */\n      dup3\n        /* \"#utility.yul\":590:599   */\n      dup6\n        /* \"#utility.yul\":586:608   */\n      add\n        /* \"#utility.yul\":544:618   */\n      tag_12\n      jump\t// in\n    tag_21:\n        /* \"#utility.yul\":534:618   */\n      swap2\n      pop\n        /* \"#utility.yul\":490:628   */\n      pop\n        /* \"#utility.yul\":264:635   */\n      swap3\n      swap2\n      pop\n      pop\n      jump\t// out\n        /* \"#utility.yul\":641:759   */\n    tag_22:\n        /* \"#utility.yul\":728:752   */\n      tag_24\n        /* \"#utility.yul\":746:751   */\n      dup2\n        /* \"#utility.yul\":728:752   */\n      tag_25\n      jump\t// in\n    tag_24:\n        /* \"#utility.yul\":723:726   */\n      dup3\n        /* \"#utility.yul\":716:753   */\n      mstore\n        /* \"#utility.yul\":641:759   */\n      pop\n      pop\n      jump\t// out\n        /* \"#utility.yul\":765:987   */\n    tag_9:\n        /* \"#utility.yul\":858:862   */\n      0x00\n        /* \"#utility.yul\":896:898   */\n      0x20\n        /* \"#utility.yul\":885:894   */\n      dup3\n        /* \"#utility.yul\":881:899   */\n      add\n        /* \"#utility.yul\":873:899   */\n      swap1\n      pop\n        /* \"#utility.yul\":909:980   */\n      tag_27\n        /* \"#utility.yul\":977:978   */\n      0x00\n        /* \"#utility.yul\":966:975   */\n      dup4\n        /* \"#utility.yul\":962:979   */\n      add\n        /* \"#utility.yul\":953:959   */\n      dup5\n        /* \"#utility.yul\":909:980   */\n      tag_22\n      jump\t// in\n    tag_27:\n        /* \"#utility.yul\":765:987   */\n      swap3\n      swap2\n      pop\n      pop\n      jump\t// out\n        /* \"#utility.yul\":1074:1151   */\n    tag_25:\n        /* \"#utility.yul\":1111:1118   */\n      0x00\n        /* \"#utility.yul\":1140:1145   */\n      dup2\n        /* \"#utility.yul\":1129:1145   */\n      swap1\n      pop\n        /* \"#utility.yul\":1074:1151   */\n      swap2\n      swap1\n      pop\n      jump\t// out\n        /* \"#utility.yul\":1157:1274   */\n    tag_16:\n        /* \"#utility.yul\":1266:1267   */\n      0x00\n        /* \"#utility.yul\":1263:1264   */\n      dup1\n        /* \"#utility.yul\":1256:1268   */\n      revert\n        /* \"#utility.yul\":1403:1520   */\n    tag_20:\n        /* \"#utility.yul\":1512:1513   */\n      0x00\n        /* \"#utility.yul\":1509:1510   */\n      dup1\n        /* \"#utility.yul\":1502:1514   */\n      revert\n\n    auxdata: 0xa26469706673582212203316d427f90549e93839815690efc8e04af95c75355b948e90f7729833bf8ffb64736f6c63430008070033\n}\n",
				"bytecode": {
					"linkReferences": {},
					"object": "608060405234801561001057600080fd5b50610119806100206000396000f3fe6080604052348015600f57600080fd5b506004361060285760003560e01c8063c21eb26514602d575b600080fd5b60436004803603810190603f91906081565b6057565b604051604e919060b6565b60405180910390f35b600081600001359050919050565b600060608284031215607857607760d9565b5b81905092915050565b600060608284031215609457609360de565b5b600060a0848285016065565b91505092915050565b60b08160cf565b82525050565b600060208201905060c9600083018460a9565b92915050565b6000819050919050565b600080fd5b600080fdfea26469706673582212203316d427f90549e93839815690efc8e04af95c75355b948e90f7729833bf8ffb64736f6c63430008070033",
					"opcodes": "PUSH1 0x80 PUSH1 0x40 MSTORE CALLVALUE DUP1 ISZERO PUSH2 0x10 JUMPI PUSH1 0x0 DUP1 REVERT JUMPDEST POP PUSH2 0x119 DUP1 PUSH2 0x20 PUSH1 0x0 CODECOPY PUSH1 0x0 RETURN INVALID PUSH1 0x80 PUSH1 0x40 MSTORE CALLVALUE DUP1 ISZERO PUSH1 0xF JUMPI PUSH1 0x0 DUP1 REVERT JUMPDEST POP PUSH1 0x4 CALLDATASIZE LT PUSH1 0x28 JUMPI PUSH1 0x0 CALLDATALOAD PUSH1 0xE0 SHR DUP1 PUSH4 0xC21EB265 EQ PUSH1 0x2D JUMPI JUMPDEST PUSH1 0x0 DUP1 REVERT JUMPDEST PUSH1 0x43 PUSH1 0x4 DUP1 CALLDATASIZE SUB DUP2 ADD SWAP1 PUSH1 0x3F SWAP2 SWAP1 PUSH1 0x81 JUMP JUMPDEST PUSH1 0x57 JUMP JUMPDEST PUSH1 0x40 MLOAD PUSH1 0x4E SWAP2 SWAP1 PUSH1 0xB6 JUMP JUMPDEST PUSH1 0x40 MLOAD DUP1 SWAP2 SUB SWAP1 RETURN JUMPDEST PUSH1 0x0 DUP2 PUSH1 0x0 ADD CALLDATALOAD SWAP1 POP SWAP2 SWAP1 POP JUMP JUMPDEST PUSH1 0x0 PUSH1 0x60 DUP3 DUP5 SUB SLT ISZERO PUSH1 0x78 JUMPI PUSH1 0x77 PUSH1 0xD9 JUMP JUMPDEST JUMPDEST DUP2 SWAP1 POP SWAP3 SWAP2 POP POP JUMP JUMPDEST PUSH1 0x0 PUSH1 0x60 DUP3 DUP5 SUB SLT ISZERO PUSH1 0x94 JUMPI PUSH1 0x93 PUSH1 0xDE JUMP JUMPDEST JUMPDEST PUSH1 0x0 PUSH1 0xA0 DUP5 DUP3 DUP6 ADD PUSH1 0x65 JUMP JUMPDEST SWAP2 POP POP SWAP3 SWAP2 POP POP JUMP JUMPDEST PUSH1 0xB0 DUP2 PUSH1 0xCF JUMP JUMPDEST DUP3 MSTORE POP POP JUMP JUMPDEST PUSH1 0x0 PUSH1 0x20 DUP3 ADD SWAP1 POP PUSH1 0xC9 PUSH1 0x0 DUP4 ADD DUP5 PUSH1 0xA9 JUMP JUMPDEST SWAP3 SWAP2 POP POP JUMP JUMPDEST PUSH1 0x0 DUP2 SWAP1 POP SWAP2 SWAP1 POP JUMP JUMPDEST PUSH1 0x0 DUP1 REVERT JUMPDEST PUSH1 0x0 DUP1 REVERT INVALID LOG2 PUSH5 0x6970667358 0x22 SLT KECCAK256 CALLER AND 0xD4 0x27 0xF9 SDIV 0x49 0xE9 CODESIZE CODECOPY DUP2 JUMP SWAP1 0xEF 0xC8 0xE0 0x4A 0xF9 0x5C PUSH22 0x355B948E90F7729833BF8FFB64736F6C634300080700 CALLER "
				},
				"gasEstimates": {
					"creation": {
						"codeDepositCost": "56200",
						"executionCost": "105",
						"totalCost": "56305"
					},
					"external": {
						"getUser((uint256,uint256,uint256))": "523"
					}
				},
				"methodIdentifiers": {
					"getUser((uint256,uint256,uint256))": "c21eb265"
				}
			},
			"userdoc": {
				"kind": "user",
				"methods": {},
				"version": 1
			}
		}
	}
}